:020000040800F2
:100000000000012011A40008813C0008833C000886
:10001000853C0008873C0008893C0008000000007F
:100020000000000000000000000000008B3C000801
:100030008D3C0008000000008F3C0008913C000847
:1000400051A4000851A4000851A40008953C0008E0
:1000500051A4000851A4000851A4000851A40008AC
:1000600051A4000851A4000851A4000851A400089C
:1000700051A4000851A4000851A4000851A400088C
:1000800051A4000851A4000851A4000851A400087C
:1000900051A4000851A4000851A4000851A400086C
:1000A00051A4000851A4000851A4000851A400085C
:1000B00051A40008A937000851A4000851A4000861
:1000C00051A4000851A4000851A4000851A400083C
:1000D00051A4000851A4000851A4000851A400082C
:1000E000B93C000851A4000851A400080000000019
:1000F0000000000000000000000000000000000000
:10010000000000000000000051A4000851A40008F5
:1001100051A4000851A4000851A4000851A40008EB
:1001200051A4000851A4000851A4000851A40008DB
:1001300051A40008973C000851A4000851A40008ED
:1001400051A4000851A4000851A4000851A40008BB
:10015000000000000000000000000000000000009F
:10016000000000000000000000000000000000008F
:10017000000000000000000000000000000000007F
:10018000000000000000000000000000000000006F
:10019000000000000000000000000000000000005F
:1001A000000000000000000000000000000000004F
:1001B000000000000000000000000000000000003F
:1001C000000000000000000000000000000000002F
:1001D000000000000000000000000000000000001F
:0401E0005FF8E0F1F3
:1001E8000EB400B598B019AB04CB199269468222B7
:1001F80092008A8100900490094A02920592012295
:100208005242CA811793074A1068199A00F00CF8ED
:10021800009A0023137018B008BC03B018470000F8
:10022800FFFFFF7FE4070020F0B55F4656464D46C6
:100238004446F0B4AFB002908A461E1C9046002295
:100248000492089200E0099E42461378002B09D0D8
:10025800252B07D0444601342378002B03D0252BC7
:1002680001D0F8E744464346E51A002D07D040463A
:10027800291C524600F02CFB049A521904920023C0
:10028800E356002B00D1FEE20134A04600226B4663
:10029800B7331A700392059201235B42069300E07C
:1002A8001E1C4246127812061216934601239844E1
:1002B80000E005915B46203B582B00D930E29B00BB
:1002C800C74A9B589F46C74A08928FE16A46B73289
:1002D8000023D356002BE4D120231370E1E7012338
:1002E800039A1A430392DCE7331D36680596002EFD
:1002F800D6DA724205921E1C0423039A1A4303920B
:10030800CFE72B226B46B7331A70CAE742461378F9
:10031800012290441B061B162A2B06D09B461A1C4A
:10032800303A092A0DD900211AE0331D366806969D
:10033800002E04DA1E1C01235B420693B1E71E1C43
:10034800AFE700218B005B185B00991842461278D2
:1003580012061216934601239844303A092AF1D915
:1003680000290691A6DA012252420692A2E78023CA
:10037800039A1A43039294E700215B46303B8A00B4
:1003880052185200991843461B781B061B169B46A9
:1003980001229044303B092B8BD8EEE74023039A87
:1003A8001A4303927DE742460023D3566C2B06D1AD
:1003B800012398441023039A1A43039271E71023E8
:1003C800039A1A4303926CE71023039A1A43039281
:1003D80067E75B46432B02D0039AD20610D5002369
:1003E8000C930D933268029869463F310CAB01F0CB
:1003F800E7F9071C431C00D145E20436099606E0DC
:10040800321D099232686B463F331A700127002269
:100418006B46B7331A703F236B4499462DE210237D
:10042800039A1A430392039BDB0603D5321D0992F4
:1004380034680BE0039B5B0605D5321D09923368CF
:100448001B041C1402E0331D09933468002C01DBE3
:100458000121ECE064422D226B46B7331A7001216A
:10046800E5E0039AD20605D5331D09933368049A4B
:100478001A60E8E6039B5B0606D5321D09923368CD
:100488006A46128A1A80DEE6331D09933368049A95
:100498001A60D8E61023039A1A430392039BDB06DB
:1004A80003D5321D0992346809E0039B5B0603D526
:1004B800321D0992348802E0331D09933468002103
:1004C800B1E0321D099234680223039A1A43039259
:1004D80078239B460221434A0892A4E0069C002206
:1004E8006B46B7331A70331D09933668B146002E30
:1004F80000D1BFE15A46532A02D0039BDB0643D5FD
:100508004D460E9500230A930B93002C18DB002709
:1005180000250E9B5A59002A1FD0029869463F3180
:100528000AAB01F04DF9421C00D1ACE1C019A04260
:1005380013DC0435844201D1271C0EE0071CE8E7D0
:100548000AAB0093029800210EAA002301F0A0F93B
:10055800071C431C00D196E10E95002F00D1EEE058
:1005680000250A950B956C4667340AAB00930298F0
:10057800211C0EAA3B1C01F08BF9874200D082E1B6
:10058800E555A1460795E0E0002C0CDB301C002166
:10059800221C00F0B5FC002800D1D3E0871BA7423D
:1005A80000DDCFE0CBE0301C00F054FF071C64E115
:1005B8001023039A1A430392039BDB0603D5321DCB
:1005C8000992346809E0039B5B0603D5321D099242
:1005D800348802E0331D09933468012123E00000C8
:1005E800945A0108545F0108AC4A0892039BDB0641
:1005F80003D5321D0992346809E0039B5B0603D5D5
:10060800321D0992348802E0331D09933468039A35
:10061800D20707D5002C05D00223039A1A43039268
:10062800022100E0022100226B46B7331A70069BB4
:10063800002B03DB8023039A9A430392002C02D1F8
:10064800069B002B50D0012909D001290CD302297F
:100658003AD0069A0792924B9946192775E0092CC9
:100668001CD86D46673529E067226A449146012304
:100678005B4299440723234030334A461370E40809
:10068800002CF4D1039AD20743D5302B41D0012353
:100698005B42994430234A4613703AE06D46673509
:1006A800013D201C0A2101F05DFC30312970201C1D
:1006B8000A2101F029FB041C0928F1D8013DA946AB
:1006C800231C30332B7024E067236B4499460122A6
:1006D800524291440F232340089A9B5C4A46137068
:1006E8002409002C15D0F2E7002903D067236B44B6
:1006F80099460EE0039AD20703D467236B449946C0
:1007080007E030216A463F322723D15466226A44E3
:1007180091466B4667334A469F1A069B079314E037
:100728005A46002A00D1AEE069463F310A700022DD
:100738006B46B7331A700996894601279DE0002356
:10074800079302E0069F002207923E1C079B9F42E8
:1007580000DA1E1C6B46B7331B781B061B16002BD2
:1007680001D0013603E0039A920700D502368423AC
:10077800039D1D4012D1059B9C1B002C0EDD102CE7
:1007880007DD48481021524600F0A2F8103C102C12
:10079800F7DC4448211C524600F09AF86846B73006
:1007A8000023C356002B04D00121524600F090F8D4
:1007B8000CE0039A920709D568463D303023037050
:1007C8005B4643700221524600F082F8802D16D114
:1007D800059A941B002C12DD102C0ADD314B1D1CD0
:1007E8001035281C1021524600F072F8103C102CCD
:1007F800F7DC2C481030211C524600F069F8079BA2
:10080800DC1B002C12DD102C0ADD264B1D1C1035BC
:10081800281C1021524600F05BF8103C102CF7DC25
:1008280020481030211C524600F052F84846391C26
:10083800524600F04DF8039A520712D5059B9C1BAF
:10084800002C0EDD102C07DD16481021524600F052
:100858003FF8103C102CF7DC1248211C524600F0DF
:1008680037F8331C059A964200DA131C049AD218FA
:100878000492E8E40C4B994606273E1E00DA00264F
:10088800002207926FE704982FB03CBC9046994627
:10089800A246AB46F0BC02BC08470000685F0108EE
:1008A8007C5F0108F85B0108985F010830B581B0EA
:1008B800041C0D1C131C054A1068211C2A1CFFF778
:1008C800B3FC01B030BC02BC08470000E4070020BC
:1008D80070B5051C0C1C101C002A03D00E22835E68
:1008E800013302D0002C14D11CE0828982239B00A2
:1008F8001A42F7D00668002909D0311C221C2B782F
:100908000B7001310135013A002AF8D13619066019
:1009180008E028780135000600160AF0D5F9013CF0
:10092800002CF6D170BC01BC0047000030B581B086
:10093800041C00F08FFD051C201C291C0022FFF759
:10094800C7FF0A200AF0C0F9281C01B030BC02BC5D
:100958000847C04600210A2200F026BF00220A23C9
:1009680000F070BE40F2E4730146C2F2000318685A
:1009780000F008B840F2E4730146C2F200031868B8
:1009880001F01EB82DE9F04F01F10B04162C83B0CD
:10099800064631D924F00704E30F8C422CBF1946D0
:1009A80043F00101002930D1304600F0EFFBB4F5E7
:1009B800FC7F2FD24FEAD40C40F6D805C2F20005CE
:1009C80005EBCC022F46D368934200F02D825C6879
:1009D80003F10808DA68304624F0030499681B1903
:1009E8005C68CA6044F0010491605C6000F0D0FB70
:1009F800404603B0BDE8F08F002310248C422CBF82
:100A0800194643F001010029CED00C234FF000080D
:100A18003360EDE75FEA542C04BF4FEAD40C4FEA89
:100A2800CC0040F0868040F6D805C2F200052818B0
:100A38002F46C368984206D10DE0002980F27981DB
:100A4800DB68984207D05A6822F00302111B0F296D
:100A5800F3DD0CF1FF3C0CF1010CBD4A93689A429E
:100A680008BF786824D0586820F00300011B0F29BC
:100A780000F3C0810029D260926080F29480B0F5C2
:100A8800007F80F07781C0084FF0010ED7F804800E
:100A980007EBC00180100EFA00F0D960D1F808E029
:100AA80040EA08007860C3F808E0CEF80C308B60A4
:100AB8004FF0010E4FEAAC030EFA03FE86457DD8CF
:100AC80010EA0E0F08D12CF0030C4FEA4E0E0CF171
:100AD800040C10EA0E0FF8D007EBCC0AE146D0461A
:100AE800D8F80C00804507D196E1002B80F2A6814A
:100AF800C068804500F09081416821F003010B1B1C
:100B08000F2BF2DD8046C568011944F0010E58F834
:100B1800087F43F00104C0F804E030464C60FD60F3
:100B2800AF60D1609160CA608A60CB5000F030FB42
:100B38005EE7BCF1040F9EBF4FEA941C0CF1380C21
:100B48004FEACC007FF66FAFBCF1140F9CBF0CF1DD
:100B58005B0C4FEACC007FF666AFBCF1540F9EBF2A
:100B68004FEA143C0CF16E0C4FEACC007FF65BAFF9
:100B7800BCF5AA7F9EBF4FEAD43C0CF1770C4FEA34
:100B8800CC007FF650AF40F254539C4595BF4FEAD6
:100B9800944C4FF47C700CF17C0C4FF07E0C98BF99
:100BA8004FEACC003FE71A1803F1080830465368AB
:100BB80043F00103536000F0EBFA19E7D7F8088017
:100BC800D8F8043023F003094C45C4EB090294BF5C
:100BD800002301230F2AD8BF43F00103002B00F0A4
:100BE800B98045F2E46AD5F80834C2F2000A304602
:100BF800B3F1FF3FDAF8002002F1100BA3441FBF46
:100C08000BF57E6B0BF11F0B2BF47E6B2BF01F0B80
:100C1800594600F0BFFAB0F1FF3F034600F01881D3
:100C280008EB0901814200F21081DAF804208142C0
:100C38005A44CAF8042000F03E81D5F808E440F68A
:100C4800D805C2F20005BEF1FF3F17BF8218C5F8EC
:100C58000804C1EB0201CAF8041010F0070517BF19
:100C6800C5F108054FF48055431905F5805503EB88
:100C78000B02304601931205120DAD1A294600F0F9
:100C880089FA019BB0F1FF3F00F02C81C11A491984
:100C980041F00101DAF80420B84545F2E46BBB6085
:100CA8002A44C2F2000B5960CAF8042017D0B9F1DF
:100CB8000F0F40F2E180A9F10C03D8F8045023F09B
:100CC8000703052008EB03010F2B05F0010543EA94
:100CD8000505C8F804504860886000F2FB80DAF81F
:100CE8002C1045F2E463C2F200038A42DAF83010AD
:100CF80088BFDA6245F2E4638A42C2F2000340F236
:100D0800A780D7F808801A63D8F8043023F00303C3
:100D18009C42C4EB030294BF002301230F2AD8BFCF
:100D280043F00103B3B130464FF0000800F030FA49
:100D38005EE69A18D9689C6803F108085568304639
:100D480045F00103E1608C60536000F021FA4FE642
:100D5800E008002008EB040342F0010244F001041B
:100D68003046C8F8044008F108085A60BB6000F033
:100D78000FFA3DE6410A04299CBF4FEA901E0EF186
:100D8800380E1DD9142998BF01F15B0E18D95429C2
:100D98009CBF4FEA103E0EF16E0E11D9B1F5AA7F35
:100DA8009CBF4FEAD03E0EF1770E09D940F2545E4F
:100DB800714596BF4FEA904E4FF07E0E0EF17C0EB5
:100DC80007EBCE08D8F80810414503D147E08968F9
:100DD800884505D0D1F804E02EF0030E7045F6D30F
:100DE800D1F80CE0C3F80CE099607868CB60CEF8D5
:100DF80008305DE61D1941F00107D56044F0010493
:100E0800956030465C6003F10808EA60AA606F608C
:100E1800695000F0BDF9EBE509F1010919F0030F7C
:100E28002FD008F108085BE603F108025B699A42D3
:100E380008BF0CF1020C3FF410AEC8E58046431819
:100E4800C268304658F8081FCAE5B8453FF4EDAE09
:100E5800D7F80880D8F8043023F0030358E74FF098
:100E68000109D7F804804FEAAE008E4609FA00F06F
:100E780048EA00007860B5E7984601225A600023E6
:100E880046E751461CF0030F0B460CF1FF3C2CD0F3
:100E980053F808199942F5D07B684FEA4E0E9E45E3
:100EA8003FF68CAEBEF1000F3FF488AE1EEA030F8A
:100EB80020D0CC4610E64FEA015E4FEA1E5EBEF136
:100EC800000F7FF4BAAEBB680BEB090141F00101DA
:100ED800596004E7304608F1080100F071FDDBF8BD
:100EE8000420FCE601210025D4E67B6823EA0E03F2
:100EF8007B60D1E74FEA4E0E09F10409D6E700BF3F
:100F080010F0030F034670B4C9B210D002B30378CF
:100F18008B421ED0013A013005E0CAB110F8014BEE
:100F2800013A8C4217D010F0030F0346F5D1032A7B
:100F380013D86AB1187888420DD0013A5C1C04E0D5
:100F480014F8015B013A8D4203D02046002AF7D1FC
:100F5800104670BC70471846FBE741EA012646EA8E
:100F68000646184653F8044B86EA0404A4F10135F2
:100F780025EA040414F0803F03D1043A1846032AF2
:100F8800EFD80346D5E700BF032A2DE9F00109D8B9
:100F98002AB10023CC5CC45401339342FAD1BDE892
:100FA800F00170470B468218014603E024780133AC
:100FB80001F8014B11F0030F1C46F7D113F003059C
:100FC8005DD06E42C5F1040CED009B594FEACC0C84
:100FD80008E00434A7593B4607FA0CF748EA070724
:100FE80041F8047B571A23FA05F8032FF1DC03E0D4
:100FF80014F8013B01F8013B8A42F9D8CFE753F8CE
:10100800404C41F8404C53F83C4C41F83C4C53F8A8
:10101800384C41F8384C53F8344C41F8344C53F8B8
:10102800304C41F8304C53F82C4C41F82C4C53F8C8
:10103800284C41F8284C53F8244C41F8244C53F8D8
:10104800204C41F8204C53F81C4C41F81C4C53F8E8
:10105800184C41F8184C53F8144C41F8144C53F8F8
:10106800104C41F8104C53F80C4C41F80C4C53F808
:10107800084C41F8084C53F8044C41F8044C561AF3
:101088001D460C46403340313F2EB8DC2B460FE05E
:1010980053F8101C44F8101C53F80C1C44F80C1C92
:1010A80053F8081C44F8081C53F8041C44F8041CA2
:1010B800161B1D4610330F2E214604F11004E7DCE1
:1010C8002B4602E0246841F8044B551A1C46032DB0
:1010D80003F10403F6DC8FE7032AC9B270B408D819
:1010E8002AB10346121803F8011B9342FBD170BCC6
:1010F80070478218044601E004F8011B14F0030F3E
:10110800FAD14FF0013303FB01F31FE044F8403CF0
:1011180044F83C3C44F8383C44F8343C44F8303C0F
:1011280044F82C3C44F8283C44F8243C44F8203C3F
:1011380044F81C3C44F8183C44F8143C44F8103C6F
:1011480044F80C3C44F8083C44F8043C161B25467B
:1011580040343F2EDADC2C4607E044F8103C44F8D3
:101168000C3C44F8083C44F8043C161B2546103453
:101178000F2EF2DC01E045F8043B541B032CFADC8B
:1011880001E005F8011B9542FBD3B0E7704700BFAB
:10119800704700BF38B54AF23C74C2F200040546F5
:1011A80008460023236009F047FEB0F1FF3F00D056
:1011B80038BD2368002BFBD02B6038BD80EA0102C4
:1011C80012F0030F3AD110F0030220F0030021F0CF
:1011D800030150F804CB08BF51F8043B0DD082F04E
:1011E80003024FEAC2026FF07F4323FA02F251F87A
:1011F800043B4CEA020C43EA020300BFACF10132A3
:101208009C4501BF22EA0C0212F0803F50F804CB43
:1012180051F8043BF2D04FEA0C604FEA1C2C01282D
:1012280028BFB0EB036F08BF1B0AF4D003F0FF031D
:101238004FEA1060A0EB0300704700BF10F0030FE7
:101248000AD010F8012B11F8013B012A28BF9A4255
:10125800F4D0A2EB030070474DF8045D4DF8044D3F
:101268004FF0010242EA022242EA024201F0030C74
:1012780021F0030150F8044B51F8045BBCF1020F54
:1012880026D04BD824F07F4CBCEB152FA4EB0203DF
:1012980023EA04030DD113EAC21308BF51F8045B13
:1012A8000AD18CEA040CBCEB056F0CD150F8044B46
:1012B800E8E74FEA15255CE033F07F4352D10D781B
:1012C8004FEA146C55E04FEA146C05F0FF0550E046
:1012D8004FEA044CA4EB02034FEA1C4C23EA040334
:1012E800BCEB154F17D113EAC21308BF51F8045BC2
:1012F80007D18CEA040CBCEB054F08D150F8044B1D
:10130800E6E71B042ED10D884FEA144C31E04FEA72
:1013180005454FEA144C4FEA15452AE004F0FF0C46
:10132800BCEB156FA4EB020323EA04030DD113EA07
:10133800C21308BF51F8045B0AD18CEA040CBCEB59
:10134800052F0AD150F8044BE8E74FEA156510E07D
:1013580014F0FF0F06D051F8045B4FEA142C25F067
:101368007F4506E04FF000005DF8044B5DF8045B34
:1013780070470CF0FF0205F0FF00012828BF9042DB
:1013880004BF4FEA1C2C2D0AF3D0A2EB00005DF835
:10139800044B5DF8045B704780EA0102844612F052
:1013A800030F4FD111F0030F32D14DF8044D11F056
:1013B800040F51F8043B0BD0A3F101329A4312F009
:1013C800803F04BF4CF8043B51F8043B16D100BFE2
:1013D80051F8044BA3F101329A4312F0803FA4F173
:1013E80001320BD14CF8043BA24312F0803F04BFFA
:1013F80051F8043B4CF8044BEAD023460CF8013B67
:1014080013F0FF0F4FEA3323F8D15DF8044B704710
:1014180011F0010F06D011F8012B0CF8012B002A4E
:1014280008BF704711F0020FBFD031F8022B12F03D
:10143800FF0F16BF2CF8022B8CF8002012F47F4FF8
:10144800B3D1704711F8012B0CF8012B002AF9D100
:10145800704700BF20F0030110F00300C0F1000046
:1014680051F8043B00F1040C4FEACC0C6FF0000279
:101478001CBF22FA0CF213434FF0010C4CEA0C2C5F
:101488004CEA0C4CA3EB0C0222EA030212EACC123F
:1014980004BF51F8043B0430F4D013F0FF0F1FBF12
:1014A800013013F47F4F013013F47F0F18BF013060
:1014B800704700BFF0B4002A3ED041EA000313F0A1
:1014C800030329D1032A07460E463AD904680D6852
:1014D800AC4236D1043A2FD0A4F1013525EA0404F0
:1014E80014F0803F2BD1051D0C1D0EE055F8043B70
:1014F80054F8041BA3F101308B4220EA030020D1E9
:10150800043A19D010F0803F1ED1032A2F462646F0
:10151800ECD828462146CAB10378013A0C78A34290
:1015280008D14AB15BB110F8013F013A11F8014FF7
:10153800A342F6D0181B00E01046F0BC70471846CE
:10154800FBE738463146E7E70020F6E72B782478B2
:10155800181BF2E770B540F2E474C2F2000482B0DE
:1015680005462668D6F8E82032B12846012302B09D
:10157800BDE8704000F034B8502000910192FFF7A8
:10158800F1F92468019A1346C6F8E800D4F8E8206F
:101598009360D4F8E860136053603361D4F8E800CE
:1015A800F3608361D4F8E8204361D362D4F8E8009B
:1015B80093624363D4F8E8200363D363D4F8E80064
:1015C80093634364D4F8E8200364D364D4F8E80050
:1015D80093640377D4F8E82000995362C5E700BF05
:1015E800F0B4002827D0074610F8016B0D4615F80F
:1015F800014B3CB1A642FAD1002BF4D11060384619
:101608003B7011E00EB913E023B9844610F8015B72
:101618000C46064614F8013B9D42F5D135B100232E
:101628008CF8003038461660F0BC70472E46F9E753
:1016380016603046F8E710680028D4D1F4E700BFF8
:101648000123CDE72DE9F04F40F6EC44C2F2000447
:1016580085B01F468C4626680B460390029213F805
:10166800014B32191D4692F801B01BF0080BF6D158
:101678002D2C73D02B2C08BF15F8014BD7F1010383
:1016880038BF0023102F14BF1A4643F0010232B1AD
:10169800302C73D01BB1302C00F083800A27B94658
:1016A800BBF1000F49460CBF6FF0004A4FF0004AEB
:1016B800CDF804C0504600F055FC504688464946CF
:1016C80000F022FB33190022DDF804C05B781146D4
:1016D80013F0040F1ED0303CA74225DD814294BF91
:1016E8000023012353EAD2722ED10A1A534243EB44
:1016F80002034445D4BF002303F00103002B23D188
:1017080009FB014115F8014B012233195B7813F0ED
:10171800040FE0D113F0030306D0012B14BF5723A5
:101728003723E41AA742D9DCB2F1FF3F1BD00846A1
:10173800BBF1000F10D1029B1BB152B90299C1F83D
:1017480000C005B0BDE8F08F4FF0FF3215F8014B2F
:10175800DBE705F1FF3CF1E74842ECE715F8014B00
:101768004FF0010B8AE70399BBF1000F0CBF6FF034
:1017780000404FF0004022230B60DCE72A78A2F1FA
:101788007800414241EB0001582A14BF0A4641F053
:101798000102002A3FF47EAF10276C78B946023563
:1017A8007EE70827B9467BE730B440F2E474C2F21A
:1017B80000040D46134601462A46206830BC41E71E
:1017C8002DE9F0410C4686B0054690461E46B1B15B
:1017D80040F6E843C2F200031F6800F0EBF90096F8
:1017E8002146424603462846B847B0F1FF3F03D199
:1017F800002333608A232B6006B0BDE8F08140F6F1
:10180800E843C2F200031F6800F0D4F9009603A968
:10181800224603462846B847E7E700BF2DE9F043CC
:10182800074687B088461546E8B140F2E47440F6AA
:10183800E843C2F20003C2F200041E68D4F8009024
:1018480000F0B8F900953946424603464846B04785
:10185800B0F1FF3F04D1236800222A608A221A606F
:1018680007B0BDE8F08340F2E47440F6E843C2F202
:101878000003C2F200041E68D4F8008000F09AF950
:10188800009503A93A4603464046B047E0E700BF43
:1018980010B582B0049C00934FF0FF33019400F020
:1018A800ABF902B010BD00BF30B540F2E47483B0AC
:1018B800C2F200040D46014600922A4601934FF0F9
:1018C800FF33206800F098F903B030BD034621B11A
:1018D800FF2A04D80A7001207047084670478A22F8
:1018E8004FF0FF301A6070472DE9F04140F6E844A8
:1018F800C2F2000482B01E46054688461746246890
:1019080000F058F9009641463A4603462846A04753
:1019180002B0BDE8F08100BFF8B540F6D804C2F2C5
:1019280000040F460546FFF731FCA3685E6826F001
:10193800030606F57E630F33DF1B3F0B013F3F03B2
:10194800B7F5805F07DB00212846FFF723FCA36873
:101958009B19984204D02846FFF71AFC0020F8BDCE
:1019680079422846FFF716FCB0F1FF3F10D045F248
:10197800E863A168C2F20003F61B284646F0010698
:101988001A684E60D71B1F60FFF702FC0120F8BDE4
:1019980000212846FFF7FEFBA368C21A0F2ADADDEA
:1019A80040F6E04445F2E861C2F20004C2F20001E8
:1019B80042F001025A602368C01A0860CBE700BFF2
:1019C8002DE9F0410D460446002958D0FFF7DEFB0B
:1019D800A5F1080240F6D8005668C2F2000026F0C9
:1019E8000103D0F808C0D1188C454F6827F00307C9
:1019F80065D016F001064F6031D00026CD196D680C
:101A080015F0010F06D1DB19002E4BD08D68C9687F
:101A1800E9608D6043F00101D3505160D6B9B3F548
:101A2800007F2ED3590A04296BD89E093836F50051
:101A38004519A968A94203D169E089688D4204D093
:101A4800486820F003008342F7D3CB68D3609160E5
:101A5800CA609A602046BDE8F041FFF799BB55F887
:101A6800085C00F1080C521B5B199568654546D067
:101A7800D2F80CC0C5F80CC0CCF80850BEE7BDE8D9
:101A8800F081DB080125466800EBC3019B1015FABD
:101A980003F3D1608D6846EA030343609560EA600A
:101AA8008A60D7E78D682B4FBD42B0D1EA6043F01A
:101AB8000101AA60D56095605160D350CAE716F05D
:101AC800010F3B4407D155F8081C521A5B1895685A
:101AD800D168E9608D6040F6E44143F00105C2F247
:101AE8000001556082600A689342B3D345F2E4630B
:101AF8002046C2F200031968FFF70EFFAAE7012685
:101B08007CE714290CD801F15B06F50090E7012564
:101B18004768B6100B46B54047EA0505456095E7A6
:101B2800542903D81E0B6E36F50081E7B1F5AA7F5C
:101B380003D8DE0B7736F5007AE740F25455A94210
:101B480003D89E0C7C36F50072E74FF47C757E2630
:101B58006EE700BFE008002010B514463AB145F61C
:101B6800A4711046C0F60101FFF728FB20B945F61D
:101B7800A070C0F6010010BD45F6A0712046C0F661
:101B88000101FFF71BFB20B945F6A070C0F6010064
:101B980010BD45F678712046C0F60101FFF70EFB2F
:101BA80045F6A073C0F6010300280CBF18460020B4
:101BB80010BD00BF40F6F040C2F20000704700BF01
:101BC80040F6F043C2F20003186A704700487047B5
:101BD800140D00200020704700487047340D002085
:101BE80040F2E4730A46C2F2000301461868B3E7FC
:101BF80000487047340D00202DE9F04F8DB099460C
:101C0800079105900692179E002955D016991768D6
:101C1800002960D0C846B9F1000F40D0079D4FF0A9
:101C2800000809AC40F6E842C2F200020492049BA4
:101C38003168726857F804ABD3F800B00391029288
:101C4800FFF7B8FF00962146524603460598D84745
:101C5800B0F1FF3F27D0169A00EB08039A421AD337
:101C6800079961B1002806DD0022A15CA954013260
:101C78008242FAD1AD1806990A6804320A6057F808
:101C8800042C002A1ED01699994213D9B9F10109DA
:101C980010D09846CBE7039A029B326073604046A7
:101CA8000DB0BDE8F08F05998A2380460B600023AC
:101CB8003360F4E79846F2E7069A4FF0FF33176867
:101CC8001693A7E7079909B106990A6003F1FF3847
:101CD80000233360E3E7DDF85880E0E7F0B540F231
:101CE800E47483B0C2F2000407460E462068154625
:101CF800089C3946009332462B460194FFF77CFF37
:101D080003B0F0BD000000004A1E08BF7047C0F0D5
:101D18002481884240F21681114200F01781B0FAFE
:101D280080F3B1FA81F2A2EB0303C3F11F0304A20B
:101D380002EB03134FF000029F4600BFAFF3008091
:101D4800B0EBC17F00BF42EB020228BFA0EBC1701D
:101D5800B0EB817F00BF42EB020228BFA0EB81708D
:101D6800B0EB417F00BF42EB020228BFA0EB4170FD
:101D7800B0EB017F00BF42EB020228BFA0EB01706D
:101D8800B0EBC16F00BF42EB020228BFA0EBC160FD
:101D9800B0EB816F00BF42EB020228BFA0EB81606D
:101DA800B0EB416F00BF42EB020228BFA0EB4160DD
:101DB800B0EB016F00BF42EB020228BFA0EB01604D
:101DC800B0EBC15F00BF42EB020228BFA0EBC150DD
:101DD800B0EB815F00BF42EB020228BFA0EB81504D
:101DE800B0EB415F00BF42EB020228BFA0EB4150BD
:101DF800B0EB015F00BF42EB020228BFA0EB01502D
:101E0800B0EBC14F00BF42EB020228BFA0EBC140BC
:101E1800B0EB814F00BF42EB020228BFA0EB81402C
:101E2800B0EB414F00BF42EB020228BFA0EB41409C
:101E3800B0EB014F00BF42EB020228BFA0EB01400C
:101E4800B0EBC13F00BF42EB020228BFA0EBC1309C
:101E5800B0EB813F00BF42EB020228BFA0EB81300C
:101E6800B0EB413F00BF42EB020228BFA0EB41307C
:101E7800B0EB013F00BF42EB020228BFA0EB0130EC
:101E8800B0EBC12F00BF42EB020228BFA0EBC1207C
:101E9800B0EB812F00BF42EB020228BFA0EB8120EC
:101EA800B0EB412F00BF42EB020228BFA0EB41205C
:101EB800B0EB012F00BF42EB020228BFA0EB0120CC
:101EC800B0EBC11F00BF42EB020228BFA0EBC1105C
:101ED800B0EB811F00BF42EB020228BFA0EB8110CC
:101EE800B0EB411F00BF42EB020228BFA0EB41103C
:101EF800B0EB011F00BF42EB020228BFA0EB0110AC
:101F0800B0EBC10F00BF42EB020228BFA0EBC1003B
:101F1800B0EB810F00BF42EB020228BFA0EB8100AB
:101F2800B0EB410F00BF42EB020228BFA0EB41001B
:101F3800B0EB010F00BF42EB020228BFA0EB01008B
:101F4800104670470CBF012000207047B1FA81F29B
:101F5800C2F11F0220FA02F0704708B14FF0FF30BB
:101F680000F00EB80029F8D02DE90340FFF7CCFEA9
:101F7800BDE8064002FB00F3A1EB0301704700BF78
:101F8800704700BF81F0004102E000BF83F00043CA
:101F980030B54FEA41044FEA430594EA050F08BFFC
:101FA80090EA020F1FBF54EA000C55EA020C7FEAC0
:101FB800645C7FEA655C00F0E2804FEA5454D4EB3D
:101FC8005555B8BF6D420CDD2C4480EA020281EA07
:101FD800030382EA000083EA010180EA020281EA3F
:101FE8000303362D88BF30BD11F0004F4FEA013191
:101FF8004FF4801C4CEA113102D0404261EB4101A0
:1020080013F0004F4FEA03334CEA133302D0524225
:1020180063EB430394EA050F00F0A780A4F10104E1
:10202800D5F1200E0DDB02FA0EFC22FA05F280181B
:1020380041F1000103FA0EF2801843FA05F3594101
:102048000EE0A5F120050EF1200E012A03FA0EFC80
:1020580028BF4CF0020C43FA05F3C01851EBE371AA
:1020680001F0004507D54FF0000EDCF1000C7EEBC7
:1020780000006EEB0101B1F5801F1BD3B1F5001F05
:102088000CD349085FEA30004FEA3C0C04F1010424
:102098004FEA445212F5800F80F09A80BCF1004F4D
:1020A80008BF5FEA500C50F1000041EB045141EACF
:1020B800050130BD5FEA4C0C404141EB010111F4D0
:1020C800801FA4F10104E9D191F0000F04BF01467B
:1020D8000020B1FA81F308BF2033A3F10B03B3F159
:1020E80020020CDA0C3208DD02F1140CC2F10C02E9
:1020F80001FA0CF021FA02F10CE002F11402D8BF47
:10210800C2F1200C01FA02F120FA0CFCDCBF41EA12
:102118000C019040E41AA2BF01EB0451294330BDE1
:102128006FEA04041F3C1CDA0C340EDC04F11404BE
:10213800C4F1200220FA04F001FA02F340EA030095
:1021480021FA04F345EA030130BDC4F10C04C4F1DB
:10215800200220FA02F001FA04F340EA03002946BB
:1021680030BD21FA04F0294630BD94F0000F83F405
:10217800801306BF81F480110134013D4EE77FEAE8
:10218800645C18BF7FEA655C29D094EA050F08BF34
:1021980090EA020F05D054EA000C04BF1946104615
:1021A80030BD91EA030F1EBF0021002030BD5FEA59
:1021B800545C05D14000494128BF41F0004130BD81
:1021C80014F580043CBF01F5801130BD01F00045D5
:1021D80045F0FE4141F470014FF0000030BD7FEA48
:1021E800645C1ABF194610467FEA655C1CBF0B4643
:1021F800024650EA013406BF52EA033591EA030F5A
:1022080041F4002130BD00BF90F0000F04BF002151
:10221800704730B54FF4806404F132044FF0000584
:102228004FF0000150E700BF90F0000F04BF0021FD
:10223800704730B54FF4806404F1320410F0004563
:1022480048BF40424FF000013EE700BF42004FEA5E
:10225800E2014FEA31014FEA02701FBF12F07F43DB
:1022680093F07F4F81F06051704792F0000F14BFD8
:1022780093F07F4F704730B54FF4607401F000451C
:1022880021F0004120E700BF50EA010208BF704773
:1022980030B54FF000050AE050EA010208BF704768
:1022A80030B511F0004502D5404261EB41014FF4D1
:1022B800806404F132045FEA915C3FF4DCAE4FF0D5
:1022C80003025FEADC0C18BF03325FEADC0C18BFBC
:1022D800033202EBDC02C2F1200300FA03FC20FA0D
:1022E80002F001FA03FE40EA0E0021FA02F114445A
:1022F800C1E600BF70B54FF0FF0C4CF4E06C1CEA6F
:1023080011541DBF1CEA135594EA0C0F95EA0C0FE3
:1023180000F0DEF82C4481EA030621EA4C5123EA56
:102328004C5350EA013518BF52EA033541F4801185
:1023380043F4801338D0A0FB02CE4FF00005E1FB38
:1023480002E506F00042E0FB03E54FF00006E1FB82
:1023580003569CF0000F18BF4EF0010EA4F1FF04C5
:10236800B6F5007F64F5407404D25FEA4E0E6D4105
:1023780046EB060642EAC62141EA55514FEAC52016
:1023880040EA5E504FEACE2EB4F1FD0C88BFBCF592
:10239800E06F1ED8BEF1004F08BF5FEA500E50F143
:1023A800000041EB045170BD06F0004646EA010109
:1023B80040EA020081EA0301B4EB5C04C2BFD4EB3B
:1023C8000C0541EA045170BD41F480114FF0000E34
:1023D800013C00F3AB8014F1360FDEBF002001F0A2
:1023E800004170BDC4F10004203C35DA0C341BDC1C
:1023F80004F11404C4F1200500FA05F320FA04F0EE
:1024080001FA05F240EA020001F0004221F0004121
:1024180010EBD37021FA04F642EB06015EEA430E94
:1024280008BF20EAD37070BDC4F10C04C4F12005C4
:1024380000FA04F320FA05F001FA04F240EA020077
:1024480001F0004110EBD37041F100015EEA430E48
:1024580008BF20EAD37070BDC4F1200500FA05F268
:102468004EEA020E20FA04F301FA05F243EA0203E7
:1024780021FA04F001F0004121FA04F220EA0200F6
:1024880000EBD3705EEA430E08BF20EAD37070BD3C
:1024980094F0000F0FD101F00046400041EB01011C
:1024A80011F4801F08BF013CF7D041EA060195F0FE
:1024B800000F18BF704703F00046520043EB0303B8
:1024C80013F4801F08BF013DF7D043EA06037047A5
:1024D80094EA0C0F0CEA135518BF95EA0C0F0CD0B0
:1024E80050EA410618BF52EA4306D1D181EA0301F6
:1024F80001F000414FF0000070BD50EA410606BFF0
:102508001046194652EA430619D094EA0C0F02D134
:1025180050EA013613D195EA0C0F05D152EA033679
:102528001CBF104619460AD181EA030101F0004197
:1025380041F0FE4141F470014FF0000070BD41F0E0
:10254800FE4141F4780170BD70B54FF0FF0C4CF4BA
:10255800E06C1CEA11541DBF1CEA135594EA0C0FD9
:1025680095EA0C0F00F0A7F8A4EB050481EA030E26
:1025780052EA03354FEA013100F088804FEA03330D
:102588004FF0805545EA131343EA12634FEA0222DB
:1025980045EA111545EA10654FEA00260EF000419C
:1025A8009D4208BF964244F1FD0404F5407402D2EE
:1025B8005B084FEA3202B61A65EB03055B084FEA7F
:1025C80032024FF480104FF4002CB6EB020E75EB7C
:1025D800030E22BFB61A754640EA0C005B084FEAA4
:1025E8003202B6EB020E75EB030E22BFB61A754621
:1025F80040EA5C005B084FEA3202B6EB020E75EB6C
:10260800030E22BFB61A754640EA9C005B084FEAE3
:102618003202B6EB020E75EB030E22BFB61A7546F0
:1026280040EADC0055EA060E18D04FEA051545EADF
:1026380016754FEA06164FEAC30343EA52734FEA88
:10264800C2025FEA1C1CC0D111F4801F0BD141EA01
:1026580000014FF000004FF0004CB6E711F4801F66
:1026680004BF01430020B4F1FD0C88BFBCF5E06F46
:102678003FF6AFAEB5EB030C04BFB6EB020C5FEA56
:10268800500C50F1000041EB045170BD0EF0004EAB
:102698004EEA113114EB5C04C2BFD4EB0C0541EADD
:1026A800045170BD41F480114FF0000E013C90E6DA
:1026B80045EA060E8DE60CEA135594EA0C0F08BF9E
:1026C80095EA0C0F3FF43BAF94EA0C0F0AD150EA9D
:1026D80001347FF434AF95EA0C0F7FF425AF104630
:1026E80019462CE795EA0C0F06D152EA03353FF458
:1026F800FDAE1046194622E750EA410618BF52EAD5
:1027080043067FF4C5AE50EA41047FF40DAF52EAA8
:1027180043057FF4EBAE12E74FF0FF3C06E000BF45
:102728004FF0010C02E000BF4FF0010C4DF804CD52
:102738004FEA410C7FEA6C5C4FEA430C18BF7FEA12
:102748006C5C1BD001B050EA410C0CBF52EA430C40
:1027580091EA030F02BF90EA020F0020704710F1C0
:10276800000F91EA030F58BF994208BF90422CBF4F
:10277800D8176FEAE37040F0010070474FEA410C48
:102788007FEA6C5C02D150EA013C07D14FEA430C66
:102798007FEA6C5CD6D152EA033CD3D05DF8040BD7
:1027A800704700BF8446104662468C461946634609
:1027B80000E000BF01B5FFF7B7FF002848BF10F1E0
:1027C800000F01BD4DF808EDFFF7F4FF0CBF012025
:1027D80000205DF808FB00BF4DF808EDFFF7EAFFA1
:1027E80034BF012000205DF808FB00BF4DF808ED5C
:1027F800FFF7E0FF94BF012000205DF808FB00BF51
:102808004DF808EDFFF7CEFF94BF012000205DF8DA
:1028180008FB00BF4DF808EDFFF7C4FF34BF0120E7
:1028280000205DF808FB00BF4FEA410212F50012D4
:1028380015D211D56FF47873B3EB625212D94FEAFF
:10284800C12343F0004343EA505311F0004F23FAE9
:1028580002F018BF404270474FF00000704750EA3E
:10286800013005D111F0004008BF6FF000407047FB
:102878004FF00000704700BF37B50546002411E04F
:10288800AB5C0DF802300132082AF9D123014FF66A
:10289800F071684603EA0101013408F04DF8083583
:1028A800052C11D000228DF800208DF801208DF81C
:1028B80002208DF803208DF804208DF805208DF86E
:1028C80006208DF80720DBE73EBD73B506460025D8
:1028D80009E01DF8043033550134082CF9D10135CD
:1028E8000836052D1AD02B014FF6F07100246846E2
:1028F80003EA010108228DF800408DF801408DF8A7
:1029080002408DF803408DF804408DF805408DF89D
:1029180006408DF8074007F027FFDAE77CBD000086
:10292800014B1878704700BF6C5A00200148FFF728
:10293800CCBF00BF3C5A0020014608B50748012219
:10294800052302F01EFE0548012102F010FE03488F
:10295800022102F060FE0028F9D008BD00240140E1
:102968002DE9F04F002585B02E462C460420FFF7B0
:10297800E3FF814802F04CFE36180620FFF7DCFF23
:102988007D4802F045FE0134642C0544EED1B6FBC7
:10299800F4F37A4EB5FBF4F4794A3460794C136059
:1029A8002146002051F8042F934216D87649451E37
:1029B80051F82510D21A5B1A9A42744D07D9FFF7BD
:1029C80033FC6BA3D3E90023FFF7E0FA02E03238C7
:1029D800FFF72AFCC5E9000102E00130A128E1D196
:1029E8003368002054F8042F934216D86649441ED1
:1029F80051F82410D21A5B1A9A42654C07D9FFF78E
:102A080013FC5BA3D3E90023FFF7C0FA02E03238D6
:102A1800FFF70AFCC4E9000102E00130A128E1D176
:102A28005C4C5A4D94F92100594F00EBD07040107E
:102A3800FFF7FAFBD5E90023FFF7AAFA824694F9D3
:102A480022008B4600EBD0704010FFF7EDFB0246EA
:102A58000B46D7E90001FFF79BFA4F4CC7E9000185
:102A6800D4E9008952465B4640464946FFF78EFA4C
:102A780000224A4BCDE90201FFF7CCFE30B14046B7
:102A880049460022454BFFF781FA0CE0DDE90201D7
:102A98000022434BFFF7A0FE40B1404649460022C2
:102AA8003E4BFFF775FAC4E9000101E0C4E900AB49
:102AB8003C4ED7E900ABD6E9008952465B46404612
:102AC8004946FFF763FA0022344BCDE90201FFF7CC
:102AD800A1FE30B1404649460022304BFFF756FA76
:102AE8000CE0DDE9020100222D4BFFF775FE40B135
:102AF800404649460022294BFFF74AFAC6E9000139
:102B080001E0C6E900AB214B30CCC3E90045D6E96A
:102B180000232046C7E9002329460022224BFFF75D
:102B2800E9FBFFF781FE29460022064600232046DE
:102B3800FFF752FE144C64220A2500283AD0764248
:102B480096FBF5F305FB136193FBF5FE009105FB7E
:102B58001E331648164996FBF2F2FDF741FB94F82E
:102B68008432012B3CD1112238E000BFAFF3008042
:102B78000000000000C048400024014058570020D1
:102B880090570020FCFFFF1F00000020805A002003
:102B9800705A00203C5A0020D85900200000E03F1D
:102BA8000000E0BF205A002000002440CC5900203B
:102BB8001C5D010896FBF5F305FB136193FBF5FE1D
:102BC800009105FB1E333948394996FBF2F2FDF7AF
:102BD80007FB94F88432012B02D11322354B1A706B
:102BE80094F88432012B0CD1093396FBF3F191FB55
:102BF800F3F003FB10132F4A5370642396FBF3F68C
:102C08009670D7E9006700222B4B30463946FFF70C
:102C180071FBFFF709FE00220546394630460023BE
:102C2800FFF7DAFD0A266422A8B16D4295FBF6F398
:102C380006FB135193FBF6F7009106FB17331F4869
:102C48001F4995FBF2F2FDF7CBFA94F88432012B79
:102C580017D1112213E095FBF6F306FB135193FBF2
:102C6800F6F7009106FB17331448114995FBF2F269
:102C7800FDF7B6FA94F88432012B02D11322114BD6
:102C88001A7094F88432012B0CD1093395FBF3F1B7
:102C980091FBF3F003FB10130A4A5370642395FB6E
:102CA800F3F5957005B0BDE8F08F00BFCC59002052
:102CB800255D0108BA59002000002440665700200D
:102CC8001C5D0108985A002001238340074A4820C8
:102CD80011780B43DBB21370054A064912788A183B
:102CE80092F88522022107F0CDBE00BF905A00203D
:102CF800BA5900200000002001238340074A4820D9
:102D0800117821EA03031370054A064912788A18D4
:102D180092F88522022107F0B5BE00BF905A002024
:102D2800BA5900200000002038B5184C0378054631
:102D3800E31893F88522164B482002211B7807F0E8
:102D4800A1FEAA786B784C20E318A418022193F806
:102D5800852294F8853207F095FE0E4D002415F96A
:102D6800013B012B04D160B2FFF7C6FF032305E046
:102D7800022B05D160B2FFF7A7FF002305F8013C3D
:102D88000134E4B2042CEAD138BD00BF00000020B1
:102D9800905A0020AE59002010B5074C024607494A
:102DA8000548FDF71DFA204607F06AFF2046BDE8F2
:102DB800104007F077BF00BFA0570020445D01080E
:102DC800044B05495A6882180A6059688A42FCD837
:102DD800704700BF700D00208C5A0020074B5A68BE
:102DE8000A325A601A680A321A609A6801329A607E
:102DF800034B1A8801321A80704700BF700D0020FB
:102E0800A45900205A4AF0B59368782B40F2AF8055
:102E18000023936057490A68D25C022A40F0A380D5
:102E2800554A564C1068C55C002D42D0013DC5542A
:102E3800534D2868C618C05C40B11768FF5C2FB9AD
:102E48000138307011683B20C85432E04D4E366866
:102E5800F718F65C4EB100282BD1013E3E70286869
:102E68003B21C1541068C15423E010BB1568ED5CC8
:102E7800FDB9012B01D1096817E0022B0ED10968B1
:102E88000320C8542178082901D00B290ED1092123
:102E980021703D494FF40040486107E0032B02D1FF
:102EA8000968CB5402E009680120C854374900205A
:102EB80008702178082956D9022B54D112689178C4
:102EC800372903D130494FF40040086191783629F9
:102ED80003D12D494FF40040486191782D2903D141
:102EE80029494FF40040086191782C2903D12649DB
:102EF8004FF4004048619178232903D122494FF4C7
:102F0800004008619178222903D11F494FF40040FD
:102F180048619178192903D11B494FF40040086191
:102F28009178182903D118494FF4004048619178E5
:102F38000F2903D114494FF40040086191780E29F4
:102F480003D111494FF4004048619178052903D114
:102F58000D494FF4004008619278042A03D10A4AC7
:102F68004FF4004151610133052B7FF453AFF0BD9D
:102F7800700D0020C0590020605700202057002005
:102F8800345A0020A059002000180140555700204D
:102F980010B5044C606800F035FE6068BDE810406C
:102FA80000F010BE700D002008B50A20FDF7DAFC0D
:102FB800084B18600A20FDF7D5FC074B18600A205B
:102FC800FDF7D0FC054B18600A20FDF7CBFC044B3D
:102FD800186008BDC0590020A0590020345A0020AC
:102FE800605700200023094A11680022CA54084982
:102FF8000968CA5407490968CA5407490968CA547C
:1030080001330A2BEFD1054B1A707047C0590020C5
:10301800A0590020345A0020605700206C5A002024
:1030280007B50A4A4FF480431361ADF8043003230F
:1030380001288DF8063001D1013300E01023034840
:1030480001A98DF8073002F055FB0EBD00140140B0
:1030580010B50822094B4FF40051596110F0010FC7
:103068000C464FF4804114BF19615961013AD2B23C
:103078001C610AB14008EDE710BD00BF0014014013
:103088002DE9F041124E4FF400534FF40047044627
:1030980077610020736190460D46FFF7C1FF3761E5
:1030A8002046FFF7D5FF4646002405E016F8010B39
:1030B800FFF7CEFF0134E4B2AC42F7D3044B4FF430
:1030C80000425A614FF400525A61BDE8F08100BFD6
:1030D800001401401D4B2DE9F0470C4691464FF472
:1030E80000514FF400425A6159611A61FFF7B0FF6D
:1030F8000120FFF795FF00251AE008270026DFF8D2
:103108004C804FF4005AC8F814A040464FF4804150
:1031180002F03FFB7608013F46EAC016FFB2F6B25E
:10312800C8F810A0002FEAD1013509F8016BEDB2FB
:10313800A542E2D3054B4FF400425A6100204FF4F8
:1031480000525A61BDE8F047FFF76ABF001401401A
:1031580030B5BF20082189B0144AFFF7BBFF134BD5
:10316800D81D19461A78150902F00F040A2202FB25
:10317800054203F8012B8342F4D18879CA780B7988
:10318800009088780190487802900978039108495E
:10319800086804904868059088680690C9680548DA
:1031A80007910549FDF71CF809B030BDE459002026
:1031B8006C57002028570020685D010830B585B09D
:1031C800032410254AF2000303A92248ADF80C3065
:1031D8008DF80E408DF80F5002F08CFA4FF48043B2
:1031E80003A91C48ADF80C308DF80E408DF80F502F
:1031F80002F080FA48F200038DF80E4003A9053466
:103208001548ADF80C308DF80F5002F073FA2246CD
:1032180001A81249FDF7B8FE00238DF804300F33DA
:103228008DF80630013B07228DF80730043B8DF8F6
:1032380008308DF809208DF80A30BE201733214652
:1032480001AA8DF805408DF80B30FFF719FF05B07E
:1032580030BD00BF001401400018014070AE0008E6
:1032680010B5044607F0BAF9164B1B78002B27D186
:10327800C0B27CB9144B28B1144A022191701B6862
:1032880001220CE01B685B78022B19D00F4B01223E
:103298009A7010E0012C06D10C4B10B102225A7022
:1032A80009E05C7007E0022C05D1084B08B1DC701E
:1032B80001E00122DA702046BDE8104007F038B975
:1032C80010BD00BF785A0020C0590020AE59002018
:1032D80070B5264B04461B78012B02D1244B5B7F2B
:1032E80007E0082B02D1224B9B7F02E002D9204B3A
:1032F800DB7F1C40002007F071F904F001031D4A30
:103308001D4940B101201BB10B689070D8701AE0BC
:103318000D6868700AE04BB10B685B78022B02D12C
:1033280004F0FE040FE0012393700CE0096802200A
:103338009070CB7011490968CB7011490968CB703E
:1033480010490968CB7014F0020F01D0012300E086
:10335800022314F0040F537001D0012300E002236C
:103368002046D370BDE8704007F0AAB82057002067
:103378003C5A0020AE590020C0590020A059002016
:10338800345A0020605700202DE9F84F884D894CA9
:103398002B78AA46012B884E40F088812368874DF8
:1033A8001B78012B45D12A788548032A88BF2B70C2
:1033B8002B78844F5B00DBB2072B88BF0023F95CB6
:1033C8000268FB18117080495B780A6880461370A0
:1033D800D1F800E07D4B9EF8002072B9006890F8A3
:1033E80000C0BCF1000F08D00CF1FF3C80F800C011
:1033F80009683B320A701B680FE0D8F8001009789A
:1034080031B92AB91A68012313702268137008E0C9
:10341800013A8EF800201B683B221A702368393A5B
:103428001A702B78FF18F87DFFF752FF2B780133BD
:103438002B702B78022B23D1654802F0B0F9654B2D
:10344800604F1880644B97F90800D3E90089FEF7AC
:10345800EBFE02460B4640464946FFF7BDF908B168
:10346800F87E0BE097F90900FEF7DEFE02460B46F0
:1034780040464946FFF7CEF910B1387FFFF728FFDD
:103488002B78032B44D1554F4E4D3B78DFF85481B0
:1034980073B995F90A00FEF7C7FE02460B46D8E94C
:1034A8000001FFF7B7F998B1236801221A700FE0FD
:1034B80095F91100FEF7B8FE02460B46D8E900015F
:1034C800FFF7A8F920B1236801221A7000233B7086
:1034D800414B95F91200D3E90089FEF7A5FE024693
:1034E8000B4640464946FFF795F908B105220CE01E
:1034F800344B93F91300FEF797FE02460B464046FD
:103508004946FFF769F918B10122354B83F884223F
:1035180023689B78012B01D0032B6FD1284A002107
:103528001368934699702368274D9B78012B03D124
:10353800244A2B68D27A17E0032B29D13378214FFC
:10354800092BDFF89090DFF8A0800FD1204802F017
:1035580026F9FB7FA9F8000003EA502088F800004C
:10356800FFF7B6FE2B6801229A7011E03A7B2B68B0
:1035780017489A7002F013F9BB7FA9F8000003EA14
:10358800502088F80000FFF7A3FE0B4B08221A70A2
:103598002A680E4B917849BBDBF8000085782DB37B
:1035A800094A013D857011683B228A701B6821E039
:1035B800785A0020C0590020205700206C5A00205B
:1035C800A05900203C5A0020345A0020605700209F
:1035D800001801406A5A0020805A002055570020E0
:1035E80000000020705A00206557002001399170B2
:1035F8001B683B229A70236802229A703578012D45
:1036080014D123689B788BB9594802F0C8F8594BF4
:103618001880594B5B7F03EA5020584B1870FFF70E
:1036280057FE574B1D70574B1B689D702368DA78FF
:10363800012A1DD1544D00212B68D970534B1968AC
:10364800CA701968524AC87850B92D68EF783FB1E6
:10365800013FEF7019683B23CB701268D37004E008
:103668000138C87013683B22DA7023680222DA70C6
:103678002568EB78022B12D1464B0022D3E90001D2
:10368800454BFFF7A9F850B100233F4AEB70126889
:10369800D3703E4A1268D3703D4A1268D3702368CB
:1036A800DB78032B1BD18AF8003018E02B78032B2A
:1036B80009D1FFF797FC394B00202870187030703B
:1036C800FFF706FE0BE02B78052B08D1FFF78AFCE5
:1036D800324B00221A702268012313702B70236862
:1036E8005A78012A1DD12848002103685970274BB0
:1036F80019684A701968264A4D7855B9006845789E
:103708003DB1013D457019683B234B7012685370F9
:1037180004E002234B7013683B225A70236802228C
:103728005A703578012D16D123689B78EBB910486B
:1037380002F035F80F4B18800F4B9B7E03EA5020A0
:103748000E4B1870FFF7C4FD0D4B1D700D4B1B6819
:103758009D70BDE8F88F45B90B4B1B689D700B4BEE
:103768001B689D700A4B1B689D70BDE8F88F00BFF1
:10377800001801406A5A00203C5A00206557002072
:10378800885A0020C0590020A0590020345A00202F
:1037980060570020805A0020000036406C5A0020F4
:1037A80070B55C48022101F0B3FD002865D05A4C81
:1037B8000221584801F0B7FD2378012B01D1013BC4
:1037C80008E00A2B08D15548FFF756F85348FFF789
:1037D8007CF80023237004E00B2BF7D05048FFF748
:1037E800A3FA5048102101F0D4FF4C4C05464E4B2B
:1037F800C0B918704D4E4E4B02221A703378012B07
:1038080016D14C4B1B78E318987DFFF761FD4A4BA6
:1038180035701B689D70494B1B689D70484B1B6831
:103828009D7005E01A781AB901321A70404B1A7067
:1038380048210022434807F079F9424B5B6813F0AE
:10384800200306D0012084F8270000F0B7FC0020F0
:1038580002E084F82730FF20FFF73AFDFFF778FCF5
:103868002C4801F048FD384B9881384BB3F89A1230
:10387800411889B2274801F035FD2648042101F096
:1038880047FD90B10421234801F04DFDFFF768F88A
:10389800204801F033FD2C4B98812C4BB3F89C1237
:1038A800411889B21B4801F01FFD1A48082101F090
:1038B8002FFD80B10821174801F035FD154801F0AA
:1038C80020FD214B9881214BB3F89E12411889B2F3
:1038D800104801F00BFD0F48102101F019FDC0B18F
:1038E80010210C4801F01FFDFFF78CFA114B1878D6
:1038F800FFF74AFD074801F007FD134B9881134B6A
:10390800B3F8A0124118034889B2BDE8704001F02D
:10391800EFBC70BD00040040645700203C5A0020F2
:10392800BA5900200014014020570020885A00206E
:10393800AE5900206C5A0020C0590020A059002020
:10394800345A00206C570020700D00200000002021
:1039580070B5012188B0022001F00CFB1D238DF801
:103968001C30193B01248DF81D3007A8013B2F4E50
:103978008DF81E308DF81F4001F044FD4FF0FF33E5
:103988000025ADF8143004A94EF65F232848ADF899
:103998001030ADF81650ADF8125001F03FFBB6F8F4
:1039A8009A3269462248ADF80630ADF80050ADF8B5
:1039B8000240ADF8085001F051FB29461C4801F0BF
:1039C8006BFCB6F89C3269461948ADF80630ADF87C
:1039D800024001F085FB2946154801F066FCB6F85F
:1039E8009E3269461248ADF80630ADF8024001F043
:1039F800BFFB29460E4801F062FCB6F8A062694692
:103A08000B48ADF80240ADF8066001F0F7FB294617
:103A1800074801F05DFC1E210548224601F031FCF3
:103A28000348214601F020FC08B070BD00000020CA
:103A38000004004070B500F0E3FA072006F032FDFC
:103A4800314B00241C60314B01251C60304B314E3A
:103A58001C60314B35701C70304B83F88452304BEE
:103A68001C70304B1C70304B1C7007F0CFF800F006
:103A78006DF800F05BFC00F0DBFC00F073FB2B4BF7
:103A88002B481C60C0B2FFF787F9FFF78DFA06F0E4
:103A980051FE072006F0F8FC264BFF221A70FEF7AD
:103AA80045FF48200621F023224606F0EBFF482078
:103AB80002210F23224606F0E5FF4C20062122466C
:103AC800234606F0DFFF022122464C20234606F05B
:103AD800D9FFFFF773FBFFF785FA174B03201B6825
:103AE8001D70164B35701C60154B1C60154B1C70F7
:103AF800FFF752F9144B4FF400425A61FFF728FFC1
:103B0800FFF746FAFCE700BF385A00205C57002050
:103B18008C570020785A00205557002000000020BC
:103B2800645700206C5A0020885A0020B45900209D
:103B3800945D0108905A0020C05900209057002039
:103B480058570020205700200018014000B58BB0BE
:103B58000622134905A8FDF717FA03F02FF903F019
:103B68003DFA104B05A809936FF07F4308930E4B5D
:103B7800079305F0DFF8002300930C4B09A9019384
:103B88000B4B08AA02930B4807AB03F0A7FA0948A6
:103B980003F0C8FA074803F0CBFA0BB000BD00BF2A
:103BA80078AE00080A0101080A010101658D0008C4
:103BB8004DA000089C5A0020014805F065B900BFD7
:103BC8009C5A002013B50E4C0190019A2368D31A11
:103BD800F92B03D9019B236004F090F8019A6368DC
:103BE800D21A41F287339A4207D9019A044B5A6094
:103BF80002B0BDE8104006F0D7B802B010BD00BF53
:103C0800840D002000B5194A8BB00390039993687E
:103C1800CB1AF92B27D9039BD1689360144B5B68A7
:103C2800994220D0D3601A0E8DF824201A0CD2B2F3
:103C38008DF825201A0AD2B2DBB28DF826208DF82D
:103C480027309DF827209DF826309DF825009DF8FF
:103C580024100090019104A80649FCF7C1FA40F627
:103C6800B830FFF7ADF80BB000BD00BF840D0020E1
:103C78009C5A0020985D01087047FEE7FEE7FEE7C2
:103C8800FEE7704770477047FFF7A8B8704710B550
:103C980001E0FFF791FF02F047F80028F9D1403022
:103CA80002F06CF84FF48030BDE8104002F066B8BE
:103CB80010B54FF4804001F0F3FC28B14FF4804078
:103CC800BDE8104001F0FABC10BD00000001024B35
:103CD800C0B283F82300704700ED00E010B586B04D
:103CE80000F0FCFF4FF4803001F01EF801F080F97D
:103CF800012804463DD1102001F0F0FC022001F01B
:103D0800E3FC002001F088F8002001F099F84FF456
:103D1800806001F08BF84FF4004001F0A1F84020DA
:103D280001F03EF84FF4C06001F044F8204601F07D
:103D38004BF83B2001F048F90028FAD04FF48030C6
:103D4800042101F01FF84FF480304FF4E01101F026
:103D580007F8012001F010F8392001F035F90028A2
:103D6800FAD0022001F046F801F04EF80828FBD1FD
:103D780000E0FEE701A801F07DF8002001F06AF8F4
:103D880001214FF4805001F0DDF801214FF400309B
:103D980001F0F0F801214FF4E03001F0D3F87D2074
:103DA800012101F0DBF84FF40070012101F0D6F891
:103DB80006B010BD10B50120B0B001F03FFD4FF4C2
:103DC800004001F007F8012001F00EF83D2001F055
:103DD800FBF80028FAD00B2001F0F0F801F042FDC2
:103DE80001F0BCFF01F0C2FF0128FBD001A801F0DF
:103DF80046FD002308930C930F9312931493159385
:103E08001693219326932793043329934FF48033F1
:103E18002B934FF4800301242C934FF400724FF43A
:103E280000114FF400530B9224914FF000722D9320
:103E380021464FF4804301A8019422922A922F939D
:103E480001F0C4FD0248214601F0D4FF30B010BD96
:103E5800400001002DE9F3410426032418250DEB49
:103E680006013C488DF806400227ADF804608DF83D
:103E7800075001F03FFC0DEB060137488DF806406E
:103E8800ADF804708DF8075001F034FC4FF460531E
:103E98000DEB06013148ADF804308DF806408DF879
:103EA800075001F027FC0DEB06012A488DF8064063
:103EB800ADF804708DF8076001F01CFC01214FF08B
:103EC800201001F075FC4FF4E0630DEB0601244867
:103ED800ADF804308DF806408DF8076001F00AFC53
:103EE8004FF480730DEB06011A48ADF804308DF8D5
:103EF80006408DF80750033C01F0FCFB10230DEB46
:103F080006011448ADF804308DF8074001F0F2FBC3
:103F180020230DEB06010F48ADF804308DF807405B
:103F280001F0E8FB40230DEB06010A48ADF8043028
:103F38008DF8074001F0DEFB802306480DEB0601F3
:103F4800B046ADF804308DF8074001F0D3FBBDE86A
:103F5800FC8100BF0008014000100140000C014036
:103F68000014014010B5012186B04FF4007000F034
:103F7800F5FF164801F082FA01A801F0D3FA0124EE
:103F880000234FF46022114801A901938DF80830ED
:103F98008DF80930039204938DF8144001F09CFACF
:103FA8000A48214601F0C7FA084801F0CEFA074846
:103FB80001F0D0FA0128FAD0044801F0CFFA0348FA
:103FC80001F0D1FA0128FAD006B010BD0024014052
:103FD80007B500214FF0006001F046FA4FF4A060E9
:103FE80001F006FA3D238DF8043001A83C3B8DF81A
:103FF80005308DF806308DF8073001F003FA0EBD54
:1040080010B586B006F06CF906F06AF9FFF766FE9F
:1040180001214FF4003000F0ADFF01214FF4E030F2
:1040280000F090FF012140F27D2000F097FFFFF79C
:10403800CFFFFFF797FFFFF70DFF002006F006FA06
:10404800012006F003FA022006F000FA032006F029
:10405800FDF9042006F0FAF9052006F0F7F9062024
:1040680006F0F4F9072006F0F1F9002006F01AFA34
:10407800012006F017FA022006F014FA032006F0D1
:1040880011FA042006F00EFA052006F00BFA0620B5
:1040980006F008FA072006F005FAFFF78BFE01A8DC
:1040A80000F0E8FE019A6423B2FBF3F3B3F1807FDA
:1040B8000BD20A4C23F07F43013B63600F20FFF7CC
:1040C80005FE0023A360073323600120FFF7FEFDF0
:1040D8000220002106F03CFA06B010BD10E000E016
:1040E800014B002019607047A00D002070B51C46D8
:1040F8001B6888B015461A0E8DF81C201A0CD2B20F
:104108008DF81D201A0AD2B2DBB28DF81E208DF868
:104118001F309DF81F209DF81E309DF81D009DF84A
:104128001C100090019102A80B49FCF759F803F004
:104138007DFE0A49064649F6617203F053FA304695
:10414800214649F66172064B03F082FE284603F0C9
:1041580063F808B070BD00BFAB5D01080C5A0108D8
:10416800E940000870B502F01AFE114949F660727C
:10417800044602F0E5FD00200246014603F09EF8E1
:1041880005462946204602F0D7FD204602F0FCFDF0
:104198002046084949F6617202F00CFD204606499E
:1041A800002202F0F9FD2846BDE8704003F034B85B
:1041B800105A01080C5A0108F540000813B5064CBE
:1041C80002A9012201F8010D1346206801F0F4FE4E
:1041D800206802F01DF91CBDA00D002010B5242098
:1041E8000C46012102F0ECFE0146204603F0CDFA10
:1041F8002046044903F0D1FA2046034903F0C7FAE0
:10420800002010BD154200081942000802F0EEBD5A
:104218002DE9F04104460E461546002A74D008469A
:10422800118903F07EFA24B9284602F0F5FFF22539
:1042380072E02B460022D3F804E0002115E01EF8B6
:1042480001707AB20D2A05D0A2F10A00424242EB6F
:10425800000200E0012220681F2805DC04EB000CA6
:1042680001308CF80470206001315889814201DAEC
:10427800002AE4D01B68002BDDD1002A3FD0236838
:10428800E21892F902100D2903D192F903100A29B4
:1042980015D092F903200D2A01D00A2A03D11F2B29
:1042A80005DC013304E01E2B01DC023300E020238F
:1042B800236023680D22E3189A70033ADA701849CC
:1042C80006220123304601F077FE211D22880123B2
:1042D800304601F071FE002323601248FDF7BAF85A
:1042E800104982B20123304601F066FE0E48FDF700
:1042F800B1F80D4982B20123304601F05DFE28462F
:1043080002F08AFF002507E033B902F06FFD30465E
:10431800BDE8F04103F0A0BC68B2BDE8F08100BF81
:10432800C05D010828570020EC59002010B503F0A3
:104338007DFD4CF2DA520446054903F053F9FF219A
:10434800204603F083F90349BDE8104003F028BA7A
:104358000C5A0108E541000838B508200D4602F05E
:10436800DDFD014698B1002404604460284603F04E
:104378000CFA2846074903F00AFA2846064903F0CA
:104388000CFA284605490A2203F00CFA00E0FF243B
:1043980060B238BD95440008ED430008D3430008D7
:1043A80038B54B68B0F86E500C469D4228BF9DB298
:1043B80009682A46002301F0FFFD28B923685B1924
:1043C800236063685D1B656038BD08B5034618B98E
:1043D800084603F041FC03E008461946FFF7E0FFF2
:1043E800002008BD02F002BD70B504460D4600214C
:1043F80003F0CBF92046002103F0CCF92046002138
:1044080003F0C5F9284602F0F1FC2046BDE87040EB
:1044180003F022BC08B503465A6808461AB1194683
:10442800FFF7BEFF02E01946FFF7DEFF002008BDD8
:1044380010B503F0FBFC50220446064903F0D2F8FD
:10444800FF21204603F002F90349BDE8104003F0BC
:10445800A7B900BF0C5A01086143000870B50646A9
:104468000D46094C0BE030466168FCF7A7FE28B9F9
:10447800A36801302B60E3686B6070BD2468002C72
:10448800F1D1204670BD00BF80AE00082DE9F04F85
:1044980015469BB0002204460E4617921892002B30
:1044A80040F02B83002D00F02C830846298903F067
:1044B80038F92368002B40F01D836F68BB493846E4
:1044C8000D22FCF7F7FF38B13846B9490E22FCF740
:1044D800F1FF002840F0B381284602F09DFEB54B5D
:1044E800B54D1A78B54F85F832205A78DFF8089319
:1044F80085F833209A78D9F8001085F83420DA78CE
:10450800DFF8F88285F835201B7903A885F836305E
:10451800AB4B1A7885F857205A7885F858209A783E
:1045280085F85920DA7885F85A201B7985F85B30A8
:104538003B6809781A78D8F800301B780091A149AF
:10454800FBF74EFE9DF80C30D9F8001085F8A53021
:104558009DF80D3003A885F8A6309DF80F3085F832
:10456800A8309DF8103085F8A9309DF8123085F8EC
:10457800AB309DF8133085F8AC303B6849785A78F1
:10458800D8F800305B7800918E49FBF729FE9DF83A
:104598000C30D9F8001085F80A329DF80D3003A8C0
:1045A80085F80B329DF80F3085F80D329DF81030E4
:1045B80085F80E329DF8123085F810329DF81330C8
:1045C80085F811323B6889789A78D8F800307E4FA0
:1045D8009B7800913978B94601917C49FBF700FE38
:1045E80005F51672002303A9C95C01330B2B02F8E9
:1045F800011FF8D1764A0B3B7649595C0133112BE0
:1046080002F8011FF8D120221346734903A800922B
:10461800FBF7E6FD9DF80C30704F85F892329DF857
:104628000D3003A885F893329DF80E306C4985F853
:10463800943297F92120FBF7D3FDDFF8C4B14FF08E
:10464800000AB84605E017F80A300AF1010A0BF823
:10465800013F03AF3846FCF7FDFE8245F3D3202225
:1046680013465D4938460092FBF7BAFD9DF80C30B9
:10467800384685F8B6329DF80D30594985F8B73275
:104688009DF80E3098F9222085F8B832FBF7A8FD7E
:10469800DFF870B14FF0000A05E017F80A300AF1A8
:1046A800010A0BF8013F03AF3846FCF7D3FE8245F9
:1046B800F3D3FEF735F998F9271099F80030024638
:1046C800009138464749FBF78BFD9DF80C30DFF821
:1046D800E88085F87C309DF80D3085F87D309DF8B0
:1046E8000E3085F87E309DF80F3085F87F309DF8C4
:1046F800103085F880309DF8113085F881303A4BBC
:104708001B78012B05D138463849FCF745FE66234E
:1047180004E038463649FCF73FFE322388F8453234
:104728009DF80C30334885F833329DF80D304FF43E
:10473800007185F834329DF80E301F4F85F83532F8
:104748009DF80F3085F836329DF8103085F83732ED
:104758009DF8113085F838329DF8123085F83932D5
:1047680001F017F808B16E2300E0662387F8D63009
:1047780020484FF4806101F00CF808B16E2300E086
:10478800662385F804311B484FF4006101F001F8F5
:1047980008B16E2300E0662385F8323115484FF4DE
:1047A800805100F0F6FF78B36E232EE0C75D010854
:1047B800D55D0108CC590020A4020020A059002092
:1047C80066570020E45D010820570020F35D0108CA
:1047D8007E05002028570020075E01083C5A00206B
:1047E8000E5E0108115E0108785A00201E5E01085D
:1047F800265E01080018014060570020345A002046
:104808003505002059050020662385F86031904859
:104818004FF4005100F0BDFF08B16E2300E066239D
:1048280085F88E318A484FF4804100F0B2FF08B114
:104838006E2300E0662385F8BC3186484BE0384695
:1048480085490D22FCF736FE28B1384683490E22E9
:10485800FCF730FE20B9284602F0DEFC80483AE03A
:10486800384680490922FCF725FE18B9284602F087
:10487800D3FC3DE138467C490B22FCF71BFE30B1E6
:1048880038467A490C22FCF715FE002833D1DFF8A8
:104898000482412718F9012F754919A8FBF7A0FCD4
:1048A80019A8FCF7D7FD734AC0B2D219002304E057
:1048B80019A9C95C013302F8011F4FFA83FE41B2FE
:1048C8008E45F5DB0C3740F2CD139F42E2D12846E6
:1048D80002F0A2FC684817A9FFF7C0FD179B3046F5
:1048E8002360189B21466360FFF75AFD30466349F1
:1048F80002F050FF01E1384661490F22FCF7DAFD6A
:104908008046002840F0818097F912306C2B52D1F4
:104918007A7D53B2312B02D0322B03D10120FEF71E
:104928009FFC44E0332B01D10220F8E7342B01D15E
:104938000320F4E7352B01D10420F0E7362B01D111
:104948000520ECE7372B02D1FEF7C2FC2FE0382B0D
:1049580007D14C4B1A78012A01D1023226E00522F0
:1049680024E0392A23D197F91630302B04D1464B4D
:1049780093F82120013205E0312B06D1424B93F800
:104988002120013A83F821200EE0322B04D13E4B3E
:1049980093F82220013205E0332B05D13A4B93F8E6
:1049A8002220013A83F82220384B0A221A7028461E
:1049B80002F032FC41E797F90F20252A21D13A2B42
:1049C8001FD11AA9384621F8043DFCF7C3FD474614
:1049D80012E0B8F1000F05D0FBF7BCFF2A4BD85501
:1049E8000137FFB2212F09D0002019A9FCF7B2FD29
:1049F80008F101085FFA88F80028EAD1234B0A2257
:104A08001A70284602F008FC68E738462049042254
:104A1800FCF750FD00283FD13B4607F1280193F9E8
:104A28000420202A03D00D2A01D00A2A01D100220D
:104A38001A7101338B42F2D10023FA1812790DA9A9
:104A4800CA54002A4AD00133282BF6D146E000BFC9
:104A580000180140CB5D01082E5E01083C5E01088C
:104A6800325E01084B5E0108615E01086D5E010857
:104A78007A5E0108A1050020655E01081D44000852
:104A88007E5E0108785A00203C5A002064570020B6
:104A98008E5E01083B5A002038461C490522FCF767
:104AA80009FD00282DD13B4607F1280193F905207F
:104AB800202A03D00D2A01D00A2A01D100225A71D6
:104AC80001338B42F2D10023FA1852790DA9CA5446
:104AD80022B10133282B01D0142AF5D1284602F03F
:104AE8009BFB0DA817A9FFF7B9FC00287FF4F6AEC9
:104AF8000748F0E6284602F08FFB00201BB0BDE80F
:104B0800F08F30462146FFF76FFCF6E7935E010809
:104B1800555E0108F0B587B00446868801A80D46A1
:104B2800304F00F0A7F9039826F03F063604B0FB93
:104B3800F7F7360CBFB247EA0606A68021882A682E
:104B480021F00101284B0904090C9A4221800AD856
:104B58005300B0FBF3F301379BB2BFB22784032B9A
:104B680098BF042322E0E9884BF6FF73994205D1E8
:104B780002EB4202B0FBF2F39BB206E01923534367
:104B8800B0FBF3F39BB243F480431A05120D0AB944
:104B980043F001034FF4967257434FF47A7297FB30
:104BA800F2F70137BFB243F400432784A383238875
:104BB80069899BB243F0010323802388AA8823F4E0
:104BC800806323F00A031B0441EA02021B0C13430F
:104BD8009BB223802A89AB8942EA03039BB22381D3
:104BE80007B0F0BD40420F00A086010021B1038844
:104BF8009BB243F0010304E0038823F001031B0484
:104C08001B0C0380704721B103889BB243F4807367
:104C180004E0038823F480731B041B0C0380704793
:104C280021B103889BB243F4007304E0038823F4A2
:104C380000731B041B0C0380704721B103889BB2CF
:104C480043F4806304E0038823F480631B041B0C93
:104C58000380704701827047008AC0B2704712B162
:104C680041F0010101E001F0FE010182704782B0CC
:104C7800002301930190019BCB180193019B188895
:104C880080B202B07047838A008B9BB243EA00402F
:104C980020F07F40431A584240EB0300704782B02F
:104CA8000023019300930B0F00900193019B21F0C7
:104CB8007F4113B1009B143302E0009B090C1833A9
:104CC8000093009B1B6819420CBF0020012002B012
:104CD8007047C94389B2818270470000104B1A6837
:104CE80042F001021A6059680E4A01EA02025A604B
:104CF8001A6822F0847222F480321A601A6822F448
:104D080080221A605A6822F4FE025A601A6822F059
:104D1800A0521A604FF47F029A600022DA6270474C
:104D2800001002400000FFF00C4BB0F5803F1A68FD
:104D380022F480321A601A6822F480221A6003D0A2
:104D4800B0F5802F09D104E01A6842F480321A6065
:104D580070471A6842F4A0221A6070470010024097
:104D6800044B5A6822F4741240EA02020A435A6059
:104D7800704700BF00100240014B1860704700BF29
:104D880060004242054AD36A23F4803323F00F03BC
:104D980040EA03030B43D362704700BF0010024090
:104DA800034BDA6A22F0F00240EA0202DA62704744
:104DB80000100240034BDA6A22F4706240EA0202F1
:104DC800DA62704700100240014B1860704700BF5C
:104DD80068004242034BDA6A22F4704240EA020257
:104DE800DA62704700100240014B1860704700BF3C
:104DF80070004242034B5A6822F0030240EA020262
:104E08005A60704700100240024B586800F00C00CE
:104E1800704700BF00100240034B5A6822F0F002AE
:104E280040EA02025A60704700100240034B5A6879
:104E380022F4E06240EA02025A6070470010024021
:104E4800034B5A6822F4605242EAC0025A60704723
:104E580000100240014B1860704700BFD800424262
:104E6800034B5A6822F4404240EA02025A607047F3
:104E78000010024030B52E4A536803F00C03042B8F
:104E880003D0082B03D02B4B2DE02B4B2BE0536882
:104E9800526803F470139B0C0D2B02F4803201D07E
:104EA800023300E0062312B9244A53431BE0204A88
:104EB800D46AD16A01F00F01013114F4803F01D1A5
:104EC8001D4A0DE0D46AD26A04F0F00424091A4D90
:104ED80002F470620134120AB5FBF4F40232624340
:104EE800B2FBF1F14B43124A03605168144B01F0D5
:104EF800F0010909595C046834FA01F14160546809
:104F080004F4E064240A1C5D31FA04F484605468F3
:104F180004F46054E40A1C5DE140C160526802F484
:104F2800404203EB92331B7CB1FBF3F1016130BDCE
:104F38000010024000127A0040787D0100093D000F
:104F48008C070020044B11B15A69104302E05A69DA
:104F580022EA00005861704700100240044B11B16A
:104F68009A69104302E09A6922EA00009861704742
:104F780000100240044B11B1DA69104302E0DA690B
:104F880022EA0000D861704700100240044B11B1BA
:104F98009A6A104302E09A6A22EA0000986270470F
:104FA80000100240044B11B1DA68104302E0DA68DD
:104FB80022EA0000D860704700100240014B1870C8
:104FC800704700BF071002404309012B074A01D16F
:104FD800136803E0022B0CBF136A536A00F01F002A
:104FE80033FA00F000F00100704700BF00100240E3
:104FF80007B5002301933120FFF7E6FF019B01333A
:105008000193019BB3F5A06F01D00028F3D03120A4
:10501800FFF7DAFF003818BF01200EBD0388CA88E1
:1050280003F08F03038003889BB213434A8813431A
:105038009BB203808B8883850B880385054B984238
:1050480002D0054B984201D10B7A03860123838253
:10505800704700BF002C014000340140038C70B53C
:1050680023F001031B041B0C0384038C8488028B2C
:105078000D8822F073021204120C2A434E880D89FF
:1050880023F002031B0446EA05051B0CADB245EAF2
:105098000303114DA4B2A84202D0104DA84215D165
:1050A8004FF6F77503EA05054B89CE891D434FF680
:1050B800FB7305EA03038D882B4347F6FF4504EA93
:1050C80005058C8946EA0404A4B22C438480028333
:1050D800CA888286038470BD002C014000340140D8
:1050E800038C30B523F010031B041B0C0384038CC2
:1050F8008288048B0D8824F4E6442404240C23F0CD
:10510800200344EA05241B040D891B0C43EA0513FC
:105118004D8892B243EA0513134DA4B2A8429BB23C
:1051280002D0124DA84219D14FF67F7503EA050542
:105138004B8945EA03154FF6BF7305EA03038D88CB
:1051480043EA051347F2FF3502EA05058A899BB24F
:1051580045EA8205CA8945EA820292B28280CA88F3
:1051680004830287038430BD002C014000340140D1
:10517800038C30B523F480731B041B0C0384038C4D
:105188008288848B0D8824F073042404240C23F46F
:1051980000731B042C430D891B0C43EA05234D881F
:1051A80092B243EA0523134D9BB2A84202D0124D96
:1051B800A84219D14FF2FF7503EA05054B8945EA64
:1051C80003254FF6FF3305EA03038D8843EA0523D9
:1051D80044F6FF7502EA05058A899BB245EA02157D
:1051E800CA8945EA021292B28280CA888483828779
:1051F800038430BD002C014000340140038C30B5DD
:1052080023F480531B041B0C0384038C8488828B37
:105218000D8822F4E6421204120C23F4005342EAE9
:1052280005221B040D891B0C43EA05334D88A4B2E3
:1052380043EA05330A4D92B2A8429BB202D0094D07
:10524800A84205D1A4048D89A40C44EA8514A4B20B
:1052580084808283CA88A0F84020038430BD00BFC0
:10526800002C01400034014021B103889BB243F077
:10527800010304E0038823F001039B059B0D0380D1
:1052880070471AB183899BB2194303E083899BB2A3
:1052980023EA010181817047038B23F008031B0473
:1052A8001B0C41EA030303837047038B23F4006359
:1052B8001B041B0C43EA01239BB203837047838BB7
:1052C80023F008031B041B0C41EA03038383704784
:1052D800838B23F400631B041B0C43EA01239BB25A
:1052E800838370478186704701877047818770473D
:1052F800A0F840107047808E80B27047008F80B24F
:105308007047808F80B27047B0F8400080B2704715
:10531800038A828911EA030092B203D011420CBFBA
:10532800002001207047C94389B2018270470000FC
:1053380030B5038ACA8823F440531B041B0C13435B
:1053480003820D4683890989AA8823F4B05341EA68
:105358000202698923F00C030A431B041B0C92B256
:1053680042EA03038381838AAA8923F440731B04D6
:105378001B0C87B013430446838201A8FFF77AFD0C
:105388000E4B2A689C420CBF049B039B19214B437C
:105398009200B3FBF2F16423B1FBF3F2120110099E
:1053A80003FB101109013231B1FBF3F303F00F03D2
:1053B80043EA020292B2228107B030BD00380140B0
:1053C80021B183899BB243F4005304E0838923F419
:1053D80000531B041B0C83817047C905C90D8180CC
:1053E8007047038819420CBF002001207047000055
:1053F80040F0BE60024B40F42020D860704700BFE8
:1054080000ED00E0C37810B5EBB1154B4178DB68CF
:105418008478DB4303F4E0631B0AC3F10402914080
:105428000F22DA4022400A430E4B01781201CB18B2
:10543800D2B283F8002303780122590903F01F032D
:1054480012FA03F307E003780122590903F01F0356
:1054580012FA03F32031034A42F8213010BD00BF8D
:1054680000ED00E000E100E021F0604121F07F0163
:10547800014B01439960704700ED00E0134B10B5F4
:10548800984207D14FF400700121FFF78BFD4FF4CC
:10549800007014E00E4B984207D14FF48060012150
:1054A800FFF780FD4FF4806009E00A4B98420BD16A
:1054B8004FF400400121FFF775FD4FF40040002133
:1054C800BDE81040FFF76EBD10BD00BF00240140CD
:1054D80000280140003C014043680A6823F4702317
:1054E80023F4807313430A7910B543EA0223436017
:1054F8008A68CB6884681A43094B04EA030342EAC2
:1055080003034A7943EA420383600B7CC26A013B86
:1055180022F47002DBB242EA0353C36210BD00BF3B
:10552800FDF7F1FF00230360037143718360C360DB
:1055380001330374704719B1836843F0010302E033
:10554800836823F0010383607047836843F008038E
:10555800836070478068C0F3C0007047836843F079
:105568000403836070478068C0F38000704719B1F6
:10557800836843F4A00302E0836823F4A0038360F4
:105588007047092970B54FEA41040BD964181E3CCD
:105598000725A540A340C66826EA050545EA030491
:1055A800C4600AE064180725A54013FA04F40669E4
:1055B80026EA050545EA04030361062A0CD8013AE0
:1055C80002EB82021F2393409140446B24EA0303B9
:1055D80043EA0102426370BD0C2A4FEA82030BD8EA
:1055E8009A18233A1F2393409140046B24EA03033B
:1055F80043EA0102026370BD9A18413A1F2393409F
:105608009140C46A24EA030343EA0102C26270BDFE
:10561800C06C80B27047036819420CBF002001209B
:1056280070470000837910B50168002B2BD01B4B05
:10563800CA431C6802EA04041C605C6822405A6081
:105648000279D218146844EA0101116002689C6862
:10565800D14301EA04049C60DC682140D9604179A7
:10566800102907D1996811439960D96841EA020263
:10567800DA6010BD01F1804303F58233196841EA0D
:1056880002021A6010BD037903F1804303F58233E7
:105698001A6822EA0101196010BD00BF0004014028
:1056A800054B1A685B69034004D010420CBF002008
:1056B800012070471846704700040140014B5861AB
:1056C800704700BF00040140034B1A6802F038021B
:1056D80040EA02021A60704700200240044B1A6830
:1056E80022F010021A601A6840EA02021A60704733
:1056F80000200240CB78F0B513F0100F03F00F0232
:105708000E881CBF8B781A4316F0FF0F1DD0046853
:10571800002301279F4007EA0605BD4211D19F00DB
:105728004FF00F0C0CFA07FC12FA07F724EA0C04E6
:105738003C43CF78282F01D1456102E0482F08BFAC
:1057480005610133082BE4D104600E88FF2E1FD9B0
:105758004468002303F108050127AF4007EA06055E
:10576800BD4211D19F004FF00F0C0CFA07FC12FA42
:1057780007F724EA0C043C43CF78282F01D1456170
:1057880002E0482F08BF05610133082BE2D14460CD
:10579800F0BD836819420CBF002001207047806863
:1057A80080B270470AB101617047416170470000DB
:1057B80030B5144A00F44015B5F5401F536884B25B
:1057C80006D1556823F0706325F07065556011E0C7
:1057D80010F4801F06D000F47022120C032515FA6D
:1057E80002F203E0420D120114FA02F223EA020364
:1057F80043F0706319B1400D000184402343014A0E
:10580800536030BD0000014001F0030230B5920042
:105818000F24944010FA02F2074B8908023153F81A
:10582800215025EA040443F8214053F8214042EA74
:10583800040443F8214030BD00000140014B1860CA
:10584800704700BFDC00204284B00023019003931E
:10585800019B01E0039B013B0393039B002BF9D1C0
:1058680004B07047012110B54FF48040FFF78EFB5C
:105878004FF480400021BDE81040FFF787BB40226D
:105888000264203A4264603242664FF0806200232C
:10589800C0F880204FF000724FF0807103604360C1
:1058A8008360C360036143618361C36103624362D0
:1058B8008362C362036343638363C3638364C364B0
:1058C800036543658365C36503668366C3660367CB
:1058D80043678367C367C0F88420C0F8A4204FF4E7
:1058E8000032C0F88810C0F8AC204FF400114FF413
:1058F8008072C0F88C10C0F89030C0F89430C0F8AE
:105908009830C0F89C30C0F8A030C0F8A830C0F873
:10591800B020C0F8B430C0F8B8307047002382B067
:105928000193124BC0061A69890102F01C0242EA6F
:10593800104201F4F8610A4342F001021A61019B26
:1059480001330193094B1B6913F0010F03D0019A2E
:10595800074B9A42F3D9074B019A9A421DBF034B52
:10596800586980B2002002B0704700BF0080024032
:10597800FEFF0400FFFF040013B500230193104B42
:10598800C0061C69890104F01C0444F0030444EABD
:10599800104401F4F8610C435A611C61019B013306
:1059A8000193074B1B6913F0010F03D0019A054BB4
:1059B8009A42F3D90198044BC01A18BF01201CBDA4
:1059C80000800240FEFF0400FFFF040070B50023C2
:1059D80088B007930693864B044601A81E690D46B6
:1059E800FFF748FA029A834B8349D3188B4226F073
:1059F8001C0602D846F0080606E0804BD318804AF9
:105A0800934298BF46F00C06794B28461E61002148
:105A18004FF40042FFF7B0FF002800F0E780794814
:105A2800FFF712FF2168002944D0069B01210133AA
:105A380028460693FFF772FF10F0040F03D1069A69
:105A4800714B9A42F1D9069A704B00219A4200F0A4
:105A5800CC8028464FF480520691FFF78DFF00282E
:105A680000F0C480069B0121013328460693FFF706
:105A780055FF10F0200F03D1069A634B9A42F1D9D3
:105A8800069A624B00209A4200F0B08006901021DE
:105A98002846FFF743FF10F0040318BF4FF40063D4
:105AA80010F0020F236201D0002301E04FF480437D
:105AB80063610FE0226A6369D20842EA530228460A
:105AC80092B2FFF759FF002800F090806FF07F40F6
