:020000040800F2
:10000000000001203DA90008A1410008A34100080B
:10001000A5410008A7410008A94100080000000010
:10002000000000000000000000000000AB410008DC
:10003000AD41000800000000AF410008B1410008D8
:100040007DA900087DA900087DA90008B541000828
:100050007DA900087DA900087DA900087DA90008E8
:100060007DA900087DA900087DA900087DA90008D8
:100070007DA900087DA900087DA900087DA90008C8
:100080007DA900087DA900087DA900087DA90008B8
:100090007DA900087DA900087DA900087DA90008A8
:1000A0007DA900087DA900087DA900087DA9000898
:1000B0007DA90008F93A00087DA900087DA900087B
:1000C0007DA900087DA900087DA900087DA9000878
:1000D0007DA900087DA90008B94100087DA9000894
:1000E0008B4200087DA900087DA9000800000000DF
:1000F0000000000000000000000000000000000000
:1001000000000000000000007DA900087DA9000893
:100110007DA900087DA900087DA900087DA9000827
:100120007DA900087DA900087DA900087DA9000817
:100130007DA90008694200087DA900087DA9000882
:100140007DA900087DA900087DA900087DA90008F7
:10015000000000000000000000000000000000009F
:10016000000000000000000000000000000000008F
:10017000000000000000000000000000000000007F
:10018000000000000000000000000000000000006F
:10019000000000000000000000000000000000005F
:1001A000000000000000000000000000000000004F
:1001B000000000000000000000000000000000003F
:1001C000000000000000000000000000000000002F
:1001D000000000000000000000000000000000001F
:0401E0005FF8E0F1F3
:1001E8000EB400B598B019AB04CB199269468222B7
:1001F80092008A8100900490094A02920592012295
:100208005242CA811793074A1068199A00F00CF8ED
:10021800009A0023137018B008BC03B018470000F8
:10022800FFFFFF7FE8070020F0B55F4656464D46C2
:100238004446F0B4AFB002908A461E1C9046002295
:100248000492089200E0099E42461378002B09D0D8
:10025800252B07D0444601342378002B03D0252BC7
:1002680001D0F8E744464346E51A002D07D040463A
:10027800291C524600F02CFB049A521904920023C0
:10028800E356002B00D1FEE20134A04600226B4663
:10029800B7331A700392059201235B42069300E07C
:1002A8001E1C4246127812061216934601239844E1
:1002B80000E005915B46203B582B00D930E29B00BB
:1002C800C74A9B589F46C74A08928FE16A46B73289
:1002D8000023D356002BE4D120231370E1E7012338
:1002E800039A1A430392DCE7331D36680596002EFD
:1002F800D6DA724205921E1C0423039A1A4303920B
:10030800CFE72B226B46B7331A70CAE742461378F9
:10031800012290441B061B162A2B06D09B461A1C4A
:10032800303A092A0DD900211AE0331D366806969D
:10033800002E04DA1E1C01235B420693B1E71E1C43
:10034800AFE700218B005B185B00991842461278D2
:1003580012061216934601239844303A092AF1D915
:1003680000290691A6DA012252420692A2E78023CA
:10037800039A1A43039294E700215B46303B8A00B4
:1003880052185200991843461B781B061B169B46A9
:1003980001229044303B092B8BD8EEE74023039A87
:1003A8001A4303927DE742460023D3566C2B06D1AD
:1003B800012398441023039A1A43039271E71023E8
:1003C800039A1A4303926CE71023039A1A43039281
:1003D80067E75B46432B02D0039AD20610D5002369
:1003E8000C930D933268029869463F310CAB01F0CB
:1003F8007BFA071C431C00D145E20436099606E047
:10040800321D099232686B463F331A700127002269
:100418006B46B7331A703F236B4499462DE210237D
:10042800039A1A430392039BDB0603D5321D0992F4
:1004380034680BE0039B5B0605D5321D09923368CF
:100448001B041C1402E0331D09933468002C01DBE3
:100458000121ECE064422D226B46B7331A7001216A
:10046800E5E0039AD20605D5331D09933368049A4B
:100478001A60E8E6039B5B0606D5321D09923368CD
:100488006A46128A1A80DEE6331D09933368049A95
:100498001A60D8E61023039A1A430392039BDB06DB
:1004A80003D5321D0992346809E0039B5B0603D526
:1004B800321D0992348802E0331D09933468002103
:1004C800B1E0321D099234680223039A1A43039259
:1004D80078239B460221434A0892A4E0069C002206
:1004E8006B46B7331A70331D09933668B146002E30
:1004F80000D1BFE15A46532A02D0039BDB0643D5FD
:100508004D460E9500230A930B93002C18DB002709
:1005180000250E9B5A59002A1FD0029869463F3180
:100528000AAB01F0E1F9421C00D1ACE1C019A042CC
:1005380013DC0435844201D1271C0EE0071CE8E7D0
:100548000AAB0093029800210EAA002301F034FAA6
:10055800071C431C00D196E10E95002F00D1EEE058
:1005680000250A950B956C4667340AAB00930298F0
:10057800211C0EAA3B1C01F01FFA874200D082E121
:10058800E555A1460795E0E0002C0CDB301C002166
:10059800221C00F0B5FC002800D1D3E0871BA7423D
:1005A80000DDCFE0CBE0301C00F07CFF071C64E1ED
:1005B8001023039A1A430392039BDB0603D5321DCB
:1005C8000992346809E0039B5B0603D5321D099242
:1005D800348802E0331D09933468012123E00000C8
:1005E80050670108906C0108AC4A0892039BDB062F
:1005F80003D5321D0992346809E0039B5B0603D5D5
:10060800321D0992348802E0331D09933468039A35
:10061800D20707D5002C05D00223039A1A43039268
:10062800022100E0022100226B46B7331A70069BB4
:10063800002B03DB8023039A9A430392002C02D1F8
:10064800069B002B50D0012909D001290CD302297F
:100658003AD0069A0792924B9946192775E0092CC9
:100668001CD86D46673529E067226A449146012304
:100678005B4299440723234030334A461370E40809
:10068800002CF4D1039AD20743D5302B41D0012353
:100698005B42994430234A4613703AE06D46673509
:1006A800013D201C0A2101F0F1FC30312970201C89
:1006B8000A2101F0BDFB041C0928F1D8013DA94617
:1006C800231C30332B7024E067236B4499460122A6
:1006D800524291440F232340089A9B5C4A46137068
:1006E8002409002C15D0F2E7002903D067236B44B6
:1006F80099460EE0039AD20703D467236B449946C0
:1007080007E030216A463F322723D15466226A44E3
:1007180091466B4667334A469F1A069B079314E037
:100728005A46002A00D1AEE069463F310A700022DD
:100738006B46B7331A700996894601279DE0002356
:10074800079302E0069F002207923E1C079B9F42E8
:1007580000DA1E1C6B46B7331B781B061B16002BD2
:1007680001D0013603E0039A920700D502368423AC
:10077800039D1D4012D1059B9C1B002C0EDD102CE7
:1007880007DD48481021524600F0A2F8103C102C12
:10079800F7DC4448211C524600F09AF86846B73006
:1007A8000023C356002B04D00121524600F090F8D4
:1007B8000CE0039A920709D568463D303023037050
:1007C8005B4643700221524600F082F8802D16D114
:1007D800059A941B002C12DD102C0ADD314B1D1CD0
:1007E8001035281C1021524600F072F8103C102CCD
:1007F800F7DC2C481030211C524600F069F8079BA2
:10080800DC1B002C12DD102C0ADD264B1D1C1035BC
:10081800281C1021524600F05BF8103C102CF7DC25
:1008280020481030211C524600F052F84846391C26
:10083800524600F04DF8039A520712D5059B9C1BAF
:10084800002C0EDD102C07DD16481021524600F052
:100858003FF8103C102CF7DC1248211C524600F0DF
:1008680037F8331C059A964200DA131C049AD218FA
:100878000492E8E40C4B994606273E1E00DA00264F
:10088800002207926FE704982FB03CBC9046994627
:10089800A246AB46F0BC02BC08470000A46C0108A5
:1008A800B86C0108B4680108D46C010830B581B08F
:1008B800041C0D1C131C054A1068211C2A1CFFF778
:1008C800B3FC01B030BC02BC08470000E8070020B8
:1008D80070B5051C0C1C101C002A03D00E22835E68
:1008E800013302D0002C14D11CE0828982239B00A2
:1008F8001A42F7D00668002909D0311C221C2B782F
:100908000B7001310135013A002AF8D13619066019
:1009180008E028780135000600160AF027FC013C9B
:10092800002CF6D170BC01BC0047000030B581B086
:10093800041C00F0B7FD051C201C291C0022FFF731
:10094800C7FF0A200AF012FC281C01B030BC02BC08
:100958000847C04600210A2200F0BABF00220A2335
:1009680000F004BF40F2E8730146C2F200031868C1
:1009780000F008B840F2E8730146C2F200031868B4
:1009880001F0B2B82DE9F04F01F10B04162C83B039
:10099800064631D924F00704E30F8C422CBF1946D0
:1009A80043F00101002930D1304600F0EFFBB4F5E7
:1009B800FC7F2FD24FEAD40C40F6DC05C2F20005CA
:1009C80005EBCC022F46D368934200F02D825C6879
:1009D80003F10808DA68304624F0030499681B1903
:1009E8005C68CA6044F0010491605C6000F0D0FB70
:1009F800404603B0BDE8F08F002310248C422CBF82
:100A0800194643F001010029CED00C234FF000080D
:100A18003360EDE75FEA542C04BF4FEAD40C4FEA89
:100A2800CC0040F0868040F6DC05C2F200052818AC
:100A38002F46C368984206D10DE0002980F27981DB
:100A4800DB68984207D05A6822F00302111B0F296D
:100A5800F3DD0CF1FF3C0CF1010CBD4A93689A429E
:100A680008BF786824D0586820F00300011B0F29BC
:100A780000F3C0810029D260926080F29480B0F5C2
:100A8800007F80F07781C0084FF0010ED7F804800E
:100A980007EBC00180100EFA00F0D960D1F808E029
:100AA80040EA08007860C3F808E0CEF80C308B60A4
:100AB8004FF0010E4FEAAC030EFA03FE86457DD8CF
:100AC80010EA0E0F08D12CF0030C4FEA4E0E0CF171
:100AD800040C10EA0E0FF8D007EBCC0AE146D0461A
:100AE800D8F80C00804507D196E1002B80F2A6814A
:100AF800C068804500F09081416821F003010B1B1C
:100B08000F2BF2DD8046C568011944F0010E58F834
:100B1800087F43F00104C0F804E030464C60FD60F3
:100B2800AF60D1609160CA608A60CB5000F030FB42
:100B38005EE7BCF1040F9EBF4FEA941C0CF1380C21
:100B48004FEACC007FF66FAFBCF1140F9CBF0CF1DD
:100B58005B0C4FEACC007FF666AFBCF1540F9EBF2A
:100B68004FEA143C0CF16E0C4FEACC007FF65BAFF9
:100B7800BCF5AA7F9EBF4FEAD43C0CF1770C4FEA34
:100B8800CC007FF650AF40F254539C4595BF4FEAD6
:100B9800944C4FF47C700CF17C0C4FF07E0C98BF99
:100BA8004FEACC003FE71A1803F1080830465368AB
:100BB80043F00103536000F0EBFA19E7D7F8088017
:100BC800D8F8043023F003094C45C4EB090294BF5C
:100BD800002301230F2AD8BF43F00103002B00F0A4
:100BE800B98045F6E80AD5F80834C2F2000A30465A
:100BF800B3F1FF3FDAF8002002F1100BA3441FBF46
:100C08000BF57E6B0BF11F0B2BF47E6B2BF01F0B80
:100C1800594600F0BFFAB0F1FF3F034600F01881D3
:100C280008EB0901814200F21081DAF804208142C0
:100C38005A44CAF8042000F03E81D5F808E440F68A
:100C4800DC05C2F20005BEF1FF3F17BF8218C5F8E8
:100C58000804C1EB0201CAF8041010F0070517BF19
:100C6800C5F108054FF48055431905F5805503EB88
:100C78000B02304601931205120DAD1A294600F0F9
:100C880089FA019BB0F1FF3F00F02C81C11A491984
:100C980041F00101DAF80420B84545F6E80BBB60DD
:100CA8002A44C2F2000B5960CAF8042017D0B9F1DF
:100CB8000F0F40F2E180A9F10C03D8F8045023F09B
:100CC8000703052008EB03010F2B05F0010543EA94
:100CD8000505C8F804504860886000F2FB80DAF81F
:100CE8002C1045F6E803C2F200038A42DAF8301005
:100CF80088BFDA6245F6E8038A42C2F2000340F28E
:100D0800A780D7F808801A63D8F8043023F00303C3
:100D18009C42C4EB030294BF002301230F2AD8BFCF
:100D280043F00103B3B130464FF0000800F030FA49
:100D38005EE69A18D9689C6803F108085568304639
:100D480045F00103E1608C60536000F021FA4FE642
:100D5800E408002008EB040342F0010244F0010417
:100D68003046C8F8044008F108085A60BB6000F033
:100D78000FFA3DE6410A04299CBF4FEA901E0EF186
:100D8800380E1DD9142998BF01F15B0E18D95429C2
:100D98009CBF4FEA103E0EF16E0E11D9B1F5AA7F35
:100DA8009CBF4FEAD03E0EF1770E09D940F2545E4F
:100DB800714596BF4FEA904E4FF07E0E0EF17C0EB5
:100DC80007EBCE08D8F80810414503D147E08968F9
:100DD800884505D0D1F804E02EF0030E7045F6D30F
:100DE800D1F80CE0C3F80CE099607868CB60CEF8D5
:100DF80008305DE61D1941F00107D56044F0010493
:100E0800956030465C6003F10808EA60AA606F608C
:100E1800695000F0BDF9EBE509F1010919F0030F7C
:100E28002FD008F108085BE603F108025B699A42D3
:100E380008BF0CF1020C3FF410AEC8E58046431819
:100E4800C268304658F8081FCAE5B8453FF4EDAE09
:100E5800D7F80880D8F8043023F0030358E74FF098
:100E68000109D7F804804FEAAE008E4609FA00F06F
:100E780048EA00007860B5E7984601225A600023E6
:100E880046E751461CF0030F0B460CF1FF3C2CD0F3
:100E980053F808199942F5D07B684FEA4E0E9E45E3
:100EA8003FF68CAEBEF1000F3FF488AE1EEA030F8A
:100EB80020D0CC4610E64FEA015E4FEA1E5EBEF136
:100EC800000F7FF4BAAEBB680BEB090141F00101DA
:100ED800596004E7304608F1080100F005FEDBF828
:100EE8000420FCE601210025D4E67B6823EA0E03F2
:100EF8007B60D1E74FEA4E0E09F10409D6E700BF3F
:100F080010F0030F034670B4C9B210D002B30378CF
:100F18008B421ED0013A013005E0CAB110F8014BEE
:100F2800013A8C4217D010F0030F0346F5D1032A7B
:100F380013D86AB1187888420DD0013A5C1C04E0D5
:100F480014F8015B013A8D4203D02046002AF7D1FC
:100F5800104670BC70471846FBE741EA012646EA8E
:100F68000646184653F8044B86EA0404A4F10135F2
:100F780025EA040414F0803F03D1043A1846032AF2
:100F8800EFD80346D5E700BF032A2DE9F00109D8B9
:100F98002AB10023CC5CC45401339342FAD1BDE892
:100FA800F00170470B468218014603E024780133AC
:100FB80001F8014B11F0030F1C46F7D113F003059C
:100FC8005DD06E42C5F1040CED009B594FEACC0C84
:100FD80008E00434A7593B4607FA0CF748EA070724
:100FE80041F8047B571A23FA05F8032FF1DC03E0D4
:100FF80014F8013B01F8013B8A42F9D8CFE753F8CE
:10100800404C41F8404C53F83C4C41F83C4C53F8A8
:10101800384C41F8384C53F8344C41F8344C53F8B8
:10102800304C41F8304C53F82C4C41F82C4C53F8C8
:10103800284C41F8284C53F8244C41F8244C53F8D8
:10104800204C41F8204C53F81C4C41F81C4C53F8E8
:10105800184C41F8184C53F8144C41F8144C53F8F8
:10106800104C41F8104C53F80C4C41F80C4C53F808
:10107800084C41F8084C53F8044C41F8044C561AF3
:101088001D460C46403340313F2EB8DC2B460FE05E
:1010980053F8101C44F8101C53F80C1C44F80C1C92
:1010A80053F8081C44F8081C53F8041C44F8041CA2
:1010B800161B1D4610330F2E214604F11004E7DCE1
:1010C8002B4602E0246841F8044B551A1C46032DB0
:1010D80003F10403F6DC8FE7032AC9B270B408D819
:1010E8002AB10346121803F8011B9342FBD170BCC6
:1010F80070478218044601E004F8011B14F0030F3E
:10110800FAD14FF0013303FB01F31FE044F8403CF0
:1011180044F83C3C44F8383C44F8343C44F8303C0F
:1011280044F82C3C44F8283C44F8243C44F8203C3F
:1011380044F81C3C44F8183C44F8143C44F8103C6F
:1011480044F80C3C44F8083C44F8043C161B25467B
:1011580040343F2EDADC2C4607E044F8103C44F8D3
:101168000C3C44F8083C44F8043C161B2546103453
:101178000F2EF2DC01E045F8043B541B032CFADC8B
:1011880001E005F8011B9542FBD3B0E7704700BFAB
:10119800704700BF38B54AF69044C2F200040546CD
:1011A8000846002323600AF099F8B0F1FF3F00D009
:1011B80038BD2368002BFBD02B6038BD10F0030F1F
:1011C80038B5044618BF004613D123682046A3F15A
:1011D800013222EA030313F0803F0AD1231D184687
:1011E80053F8042BA2F1013525EA020212F0803FE0
:1011F800F5D003782BB1431C184613F8012B002AAD
:10120800FAD100F0F1F8204638BD00BF80EA0102AB
:1012180012F0030F3AD110F0030220F0030021F07E
:10122800030150F804CB08BF51F8043B0DD082F0FD
:1012380003024FEAC2026FF07F4323FA02F251F829
:10124800043B4CEA020C43EA020300BFACF1013252
:101258009C4501BF22EA0C0212F0803F50F804CBF3
:1012680051F8043BF2D04FEA0C604FEA1C2C0128DD
:1012780028BFB0EB036F08BF1B0AF4D003F0FF03CD
:101288004FEA1060A0EB0300704700BF10F0030F97
:101298000AD010F8012B11F8013B012A28BF9A4205
:1012A800F4D0A2EB030070474DF8045D4DF8044DEF
:1012B8004FF0010242EA022242EA024201F0030C24
:1012C80021F0030150F8044B51F8045BBCF1020F04
:1012D80026D04BD824F07F4CBCEB152FA4EB02038F
:1012E80023EA04030DD113EAC21308BF51F8045BC3
:1012F8000AD18CEA040CBCEB056F0CD150F8044BF6
:10130800E8E74FEA15255CE033F07F4352D10D78CA
:101318004FEA146C55E04FEA146C05F0FF0550E0F5
:101328004FEA044CA4EB02034FEA1C4C23EA0403E3
:10133800BCEB154F17D113EAC21308BF51F8045B71
:1013480007D18CEA040CBCEB054F08D150F8044BCC
:10135800E6E71B042ED10D884FEA144C31E04FEA22
:1013680005454FEA144C4FEA15452AE004F0FF0CF6
:10137800BCEB156FA4EB020323EA04030DD113EAB7
:10138800C21308BF51F8045B0AD18CEA040CBCEB09
:10139800052F0AD150F8044BE8E74FEA156510E02D
:1013A80014F0FF0F06D051F8045B4FEA142C25F017
:1013B8007F4506E04FF000005DF8044B5DF8045BE4
:1013C80070470CF0FF0205F0FF00012828BF90428B
:1013D80004BF4FEA1C2C2D0AF3D0A2EB00005DF8E5
:1013E800044B5DF8045B704780EA0102844612F002
:1013F800030F4FD111F0030F32D14DF8044D11F006
:10140800040F51F8043B0BD0A3F101329A4312F0B8
:10141800803F04BF4CF8043B51F8043B16D100BF91
:1014280051F8044BA3F101329A4312F0803FA4F122
:1014380001320BD14CF8043BA24312F0803F04BFA9
:1014480051F8043B4CF8044BEAD023460CF8013B16
:1014580013F0FF0F4FEA3323F8D15DF8044B7047C0
:1014680011F0010F06D011F8012B0CF8012B002AFE
:1014780008BF704711F0020FBFD031F8022B12F0ED
:10148800FF0F16BF2CF8022B8CF8002012F47F4FA8
:10149800B3D1704711F8012B0CF8012B002AF9D1B0
:1014A800704700BF20F0030110F00300C0F10000F6
:1014B80051F8043B00F1040C4FEACC0C6FF0000229
:1014C8001CBF22FA0CF213434FF0010C4CEA0C2C0F
:1014D8004CEA0C4CA3EB0C0222EA030212EACC12EF
:1014E80004BF51F8043B0430F4D013F0FF0F1FBFC2
:1014F800013013F47F4F013013F47F0F18BF013010
:10150800704700BF10F0030F70B418BF044613D122
:1015180003680446A3F1013525EA030313F0803F6D
:101528000AD1031D1C4653F8045BA5F1013626EACF
:10153800050515F0803FF5D023782BB1631C1C46B8
:1015480013F8015B002DFAD13AB111F8013B04F808
:10155800013B13B1013AF8D1227070BC704700BF4B
:10156800F0B4002A3ED041EA000313F0030329D166
:10157800032A07460E463AD904680D68AC4236D1AC
:10158800043A2FD0A4F1013525EA040414F0803F71
:101598002BD1051D0C1D0EE055F8043B54F8041B17
:1015A800A3F101308B4220EA030020D1043A19D07C
:1015B80010F0803F1ED1032A2F462646ECD8284635
:1015C8002146CAB10378013A0C78A34208D14AB13E
:1015D8005BB110F8013F013A11F8014FA342F6D070
:1015E800181B00E01046F0BC70471846FBE7384669
:1015F8003146E7E70020F6E72B782478181BF2E756
:1016080041EA000313F0030F034670B414BF00252A
:101618000125032A94BF002505F001050C4606465E
:10162800CDB9B2B10D783446531E04F8015B55B1FB
:10163800B21C73B111F8015F1446013B02F8015C5A
:101648000132002DF5D123B10022013B04F8012B12
:10165800FBD170BC7047214654F8045BA5F10136F4
:1016680026EA050616F0803F05D1043A43F8045BE4
:10167800032A2146EFD81E46D3E700BF70B540F2D3
:10168800E874C2F2000482B005462668D6F8E8205D
:1016980032B12846012302B0BDE8704000F034B8EA
:1016A800502000910192FFF75DF92468019A1346D2
:1016B800C6F8E800D4F8E8209360D4F8E86013602E
:1016C80053603361D4F8E800F3608361D4F8E8200C
:1016D8004361D362D4F8E80093624363D4F8E82006
:1016E8000363D363D4F8E80093634364D4F8E82031
:1016F8000364D364D4F8E80093640377D4F8E8204B
:1017080000995362C5E700BFF0B4002827D0074608
:1017180010F8016B0D4615F8014B3CB1A642FAD101
:10172800002BF4D1106038463B7011E00EB913E07D
:1017380023B9844610F8015B0C46064614F8013BB1
:101748009D42F5D135B100238CF80030384616603B
:10175800F0BC70472E46F9E716603046F8E7106887
:101768000028D4D1F4E700BF0123CDE72DE9F04FDD
:1017780040F6F044C2F2000485B01F468C46266845
:101788000B460390029213F8014B32191D4692F84A
:1017980001B01BF0080BF6D12D2C73D02B2C08BFF1
:1017A80015F8014BD7F1010338BF0023102F14BFE0
:1017B8001A4643F0010232B1302C73D01BB1302CE1
:1017C80000F083800A27B946BBF1000F49460CBFD9
:1017D8006FF0004A4FF0004ACDF804C0504600F0C0
:1017E80055FC50468846494600F022FB3319002232
:1017F800DDF804C05B78114613F0040F1ED0303CAE
:10180800A74225DD814294BF0023012353EAD27207
:101818002ED10A1A534243EB02034445D4BF002396
:1018280003F00103002B23D109FB014115F8014BFB
:10183800012233195B7813F0040FE0D113F003038E
:1018480006D0012B14BF57233723E41AA742D9DC4B
:10185800B2F1FF3F1BD00846BBF1000F10D1029B2D
:101868001BB152B90299C1F800C005B0BDE8F08FAC
:101878004FF0FF3215F8014BDBE705F1FF3CF1E7CC
:101888004842ECE715F8014B4FF0010B8AE7039942
:10189800BBF1000F0CBF6FF000404FF00040222357
:1018A8000B60DCE72A78A2F17800414241EB0001A5
:1018B800582A14BF0A4641F00102002A3FF47EAFBD
:1018C80010276C78B94602357EE70827B9467BE7CA
:1018D80030B440F2E874C2F200040D4613460146E3
:1018E8002A46206830BC41E72DE9F0410C4686B015
:1018F800054690461E46B1B140F6EC43C2F20003DD
:101908001F6800F0EBF90096214642460346284638
:10191800B847B0F1FF3F03D1002333608A232B601F
:1019280006B0BDE8F08140F6EC43C2F200031F6840
:1019380000F0D4F9009603A9224603462846B84782
:10194800E7E700BF2DE9F043074687B0884615460C
:10195800E8B140F2E87440F6EC43C2F20003C2F288
:1019680000041E68D4F8009000F0B8F900953946D4
:10197800424603464846B047B0F1FF3F04D12368CA
:1019880000222A608A221A6007B0BDE8F08340F27C
:10199800E87440F6EC43C2F20003C2F200041E6889
:1019A800D4F8008000F09AF9009503A93A46034656
:1019B8004046B047E0E700BF10B582B0049C0093F2
:1019C8004FF0FF33019400F0ABF902B010BD00BF37
:1019D80030B540F2E87483B0C2F200040D46014607
:1019E80000922A4601934FF0FF33206800F098F9DF
:1019F80003B030BD034621B1FF2A04D80A70012084
:101A08007047084670478A224FF0FF301A607047C7
:101A18002DE9F04140F6EC44C2F2000482B01E46C3
:101A2800054688461746246800F058F9009641464E
:101A38003A4603462846A04702B0BDE8F08100BFF9
:101A4800F8B540F6DC04C2F200040F460546FFF77D
:101A58009DFBA3685E6826F0030606F57E630F33D8
:101A6800DF1B3F0B013F3F03B7F5805F07DB00211A
:101A78002846FFF78FFBA3689B19984204D0284695
:101A8800FFF786FB0020F8BD79422846FFF782FB66
:101A9800B0F1FF3F10D045F6EC03A168C2F2000395
:101AA800F61B284646F001061A684E60D71B1F60D1
:101AB800FFF76EFB0120F8BD00212846FFF76AFBFF
:101AC800A368C21A0F2ADADD40F6E44445F6EC01B1
:101AD800C2F20004C2F2000142F001025A60236817
:101AE800C01A0860CBE700BF2DE9F0410D46044657
:101AF800002958D0FFF74AFBA5F1080240F6DC00A0
:101B08005668C2F2000026F00103D0F808C0D118C8
:101B18008C454F6827F0030765D016F001064F6023
:101B280031D00026CD196D6815F0010F06D1DB19EB
:101B3800002E4BD08D68C968E9608D6043F00101C3
:101B4800D3505160D6B9B3F5007F2ED3590A042972
:101B58006BD89E093836F5004519A968A94203D102
:101B680069E089688D4204D0486820F00300834208
:101B7800F7D3CB68D3609160CA609A602046BDE80D
:101B8800F041FFF705BB55F8085C00F1080C521B43
:101B98005B199568654546D0D2F80CC0C5F80CC0ED
:101BA800CCF80850BEE7BDE8F081DB08012546689F
:101BB80000EBC3019B1015FA03F3D1608D6846EA68
:101BC800030343609560EA608A60D7E78D682B4F0E
:101BD800BD42B0D1EA6043F00101AA60D5609560CA
:101BE8005160D350CAE716F0010F3B4407D155F8AE
:101BF800081C521A5B189568D168E9608D6040F638
:101C0800E84143F00105C2F20001556082600A68AC
:101C18009342B3D345F6E8032046C2F2000319689D
:101C2800FFF70EFFAAE701267CE714290CD801F17B
:101C38005B06F50090E701254768B6100B46B540EE
:101C480047EA0505456095E7542903D81E0B6E360B
:101C5800F50081E7B1F5AA7F03D8DE0B7736F500EA
:101C68007AE740F25455A94203D89E0C7C36F50019
:101C780072E74FF47C757E266EE700BFE40800200B
:101C880010B514463AB146F6E0411046C0F60101D7
:101C9800FFF7BCFA20B946F6DC40C0F6010010BDDB
:101CA80046F6DC412046C0F60101FFF7AFFA20B93D
:101CB80046F6DC40C0F6010010BD46F6B4412046A9
:101CC800C0F60101FFF7A2FA46F6DC43C0F60103AD
:101CD80000280CBF1846002010BD00BF40F6F44095
:101CE800C2F20000704700BF40F6F443C2F200039E
:101CF800186A704700487047180D00200020704788
:101D080000487047380D002040F2E8730A46C2F2D6
:101D1800000301461868B3E700487047380D0020F3
:101D28002DE9F04F8DB09946079105900692179EC0
:101D3800002955D016991768002960D0C846B9F10E
:101D4800000F40D0079D4FF0000809AC40F6EC4268
:101D5800C2F200020492049B3168726857F804AB1F
:101D6800D3F800B003910292FFF7B8FF009621461E
:101D7800524603460598D847B0F1FF3F27D0169A38
:101D880000EB08039A421AD3079961B1002806DDCF
:101D98000022A15CA95401328242FAD1AD180699F9
:101DA8000A6804320A6057F8042C002A1ED01699D3
:101DB800994213D9B9F1010910D09846CBE7039A93
:101DC800029B3260736040460DB0BDE8F08F059904
:101DD8008A2380460B6000233360F4E79846F2E7D5
:101DE800069A4FF0FF3317681693A7E7079909B1CA
:101DF80006990A6003F1FF3800233360E3E7DDF852
:101E08005880E0E7F0B540F2E87483B0C2F200040D
:101E180007460E4620681546089C39460093324608
:101E28002B460194FFF77CFF03B0F0BD00000000D3
:101E38004A1E08BF7047C0F02481884240F21681CC
:101E4800114200F01781B0FA80F3B1FA81F2A2EBE7
:101E58000303C3F11F0304A202EB03134FF00002B4
:101E68009F4600BFAFF30080B0EBC17F00BF42EBDD
:101E7800020228BFA0EBC170B0EB817F00BF42EB2C
:101E8800020228BFA0EB8170B0EB417F00BF42EB9C
:101E9800020228BFA0EB4170B0EB017F00BF42EB0C
:101EA800020228BFA0EB0170B0EBC16F00BF42EB8C
:101EB800020228BFA0EBC160B0EB816F00BF42EB0C
:101EC800020228BFA0EB8160B0EB416F00BF42EB7C
:101ED800020228BFA0EB4160B0EB016F00BF42EBEC
:101EE800020228BFA0EB0160B0EBC15F00BF42EB6C
:101EF800020228BFA0EBC150B0EB815F00BF42EBEC
:101F0800020228BFA0EB8150B0EB415F00BF42EB5B
:101F1800020228BFA0EB4150B0EB015F00BF42EBCB
:101F2800020228BFA0EB0150B0EBC14F00BF42EB4B
:101F3800020228BFA0EBC140B0EB814F00BF42EBCB
:101F4800020228BFA0EB8140B0EB414F00BF42EB3B
:101F5800020228BFA0EB4140B0EB014F00BF42EBAB
:101F6800020228BFA0EB0140B0EBC13F00BF42EB2B
:101F7800020228BFA0EBC130B0EB813F00BF42EBAB
:101F8800020228BFA0EB8130B0EB413F00BF42EB1B
:101F9800020228BFA0EB4130B0EB013F00BF42EB8B
:101FA800020228BFA0EB0130B0EBC12F00BF42EB0B
:101FB800020228BFA0EBC120B0EB812F00BF42EB8B
:101FC800020228BFA0EB8120B0EB412F00BF42EBFB
:101FD800020228BFA0EB4120B0EB012F00BF42EB6B
:101FE800020228BFA0EB0120B0EBC11F00BF42EBEB
:101FF800020228BFA0EBC110B0EB811F00BF42EB6B
:10200800020228BFA0EB8110B0EB411F00BF42EBDA
:10201800020228BFA0EB4110B0EB011F00BF42EB4A
:10202800020228BFA0EB0110B0EBC10F00BF42EBCA
:10203800020228BFA0EBC100B0EB810F00BF42EB4A
:10204800020228BFA0EB8100B0EB410F00BF42EBBA
:10205800020228BFA0EB4100B0EB010F00BF42EB2A
:10206800020228BFA0EB0100104670470CBF0120F8
:1020780000207047B1FA81F2C2F11F0220FA02F083
:10208800704708B14FF0FF3000F00EB80029F8D0C3
:102098002DE90340FFF7CCFEBDE8064002FB00F344
:1020A800A1EB0301704700BF704700BF81F00041FA
:1020B80002E000BF83F0004330B54FEA41044FEA25
:1020C800430594EA050F08BF90EA020F1FBF54EAC0
:1020D800000C55EA020C7FEA645C7FEA655C00F05C
:1020E800E2804FEA5454D4EB5555B8BF6D420CDD2D
:1020F8002C4480EA020281EA030382EA000083EAB0
:10210800010180EA020281EA0303362D88BF30BD4F
:1021180011F0004F4FEA01314FF4801C4CEA1131A5
:1021280002D0404261EB410113F0004F4FEA033304
:102138004CEA133302D0524263EB430394EA050F8F
:1021480000F0A780A4F10104D5F1200E0DDB02FAFE
:102158000EFC22FA05F2801841F1000103FA0EF292
:10216800801843FA05F359410EE0A5F120050EF158
:10217800200E012A03FA0EFC28BF4CF0020C43FA89
:1021880005F3C01851EBE37101F0004507D54FF096
:10219800000EDCF1000C7EEB00006EEB0101B1F5E6
:1021A800801F1BD3B1F5001F0CD349085FEA30002C
:1021B8004FEA3C0C04F101044FEA445212F5800F37
:1021C80080F09A80BCF1004F08BF5FEA500C50F1D4
:1021D800000041EB045141EA050130BD5FEA4C0CB7
:1021E800404141EB010111F4801FA4F10104E9D140
:1021F80091F0000F04BF01460020B1FA81F308BF37
:102208002033A3F10B03B3F120020CDA0C3208DD02
:1022180002F1140CC2F10C0201FA0CF021FA02F1DD
:102228000CE002F11402D8BFC2F1200C01FA02F14D
:1022380020FA0CFCDCBF41EA0C019040E41AA2BF72
:1022480001EB0451294330BD6FEA04041F3C1CDA3A
:102258000C340EDC04F11404C4F1200220FA04F05A
:1022680001FA02F340EA030021FA04F345EA030104
:1022780030BDC4F10C04C4F1200220FA02F001FAC6
:1022880004F340EA0300294630BD21FA04F0294648
:1022980030BD94F0000F83F4801306BF81F48011E1
:1022A8000134013D4EE77FEA645C18BF7FEA655C54
:1022B80029D094EA050F08BF90EA020F05D054EA26
:1022C800000C04BF1946104630BD91EA030F1EBF2B
:1022D8000021002030BD5FEA545C05D1400049412F
:1022E80028BF41F0004130BD14F580043CBF01F522
:1022F800801130BD01F0004545F0FE4141F4700108
:102308004FF0000030BD7FEA645C1ABF19461046E2
:102318007FEA655C1CBF0B46024650EA013406BFE3
:1023280052EA033591EA030F41F4002130BD00BFA2
:1023380090F0000F04BF0021704730B54FF480645F
:1023480004F132044FF000054FF0000150E700BFE0
:1023580090F0000F04BF0021704730B54FF480643F
:1023680004F1320410F0004548BF40424FF000012C
:102378003EE700BF42004FEAE2014FEA31014FEA6F
:1023880002701FBF12F07F4393F07F4F81F06051BE
:10239800704792F0000F14BF93F07F4F704730B52D
:1023A8004FF4607401F0004521F0004120E700BFC0
:1023B80050EA010208BF704730B54FF000050AE047
:1023C80050EA010208BF704730B511F0004502D548
:1023D800404261EB41014FF4806404F132045FEA4A
:1023E800915C3FF4DCAE4FF003025FEADC0C18BFEF
:1023F80003325FEADC0C18BF033202EBDC02C2F1E5
:10240800200300FA03FC20FA02F001FA03FE40EA76
:102418000E0021FA02F11444C1E600BF70B54FF076
:10242800FF0C4CF4E06C1CEA11541DBF1CEA135558
:1024380094EA0C0F95EA0C0F00F0DEF82C4481EAC0
:10244800030621EA4C5123EA4C5350EA013518BFE0
:1024580052EA033541F4801143F4801338D0A0FBCD
:1024680002CE4FF00005E1FB02E506F00042E0FB7A
:1024780003E54FF00006E1FB03569CF0000F18BF80
:102488004EF0010EA4F1FF04B6F5007F64F5407428
:1024980004D25FEA4E0E6D4146EB060642EAC621BB
:1024A80041EA55514FEAC52040EA5E504FEACE2E28
:1024B800B4F1FD0C88BFBCF5E06F1ED8BEF1004F2B
:1024C80008BF5FEA500E50F1000041EB045170BDA7
:1024D80006F0004646EA010140EA020081EA0301EB
:1024E800B4EB5C04C2BFD4EB0C0541EA045170BDE7
:1024F80041F480114FF0000E013C00F3AB8014F161
:10250800360FDEBF002001F0004170BDC4F10004A9
:10251800203C35DA0C341BDC04F11404C4F120052A
:1025280000FA05F320FA04F001FA05F240EA020085
:1025380001F0004221F0004110EBD37021FA04F6BB
:1025480042EB06015EEA430E08BF20EAD37070BD75
:10255800C4F10C04C4F1200500FA04F320FA05F0D4
:1025680001FA04F240EA020001F0004110EBD370D6
:1025780041F100015EEA430E08BF20EAD37070BD46
:10258800C4F1200500FA05F24EEA020E20FA04F31F
:1025980001FA05F243EA020321FA04F001F00041CE
:1025A80021FA04F220EA020000EBD3705EEA430E3F
:1025B80008BF20EAD37070BD94F0000F0FD101F06E
:1025C8000046400041EB010111F4801F08BF013CA7
:1025D800F7D041EA060195F0000F18BF704703F0E5
:1025E8000046520043EB030313F4801F08BF013D6C
:1025F800F7D043EA0603704794EA0C0F0CEA135528
:1026080018BF95EA0C0F0CD050EA410618BF52EAE1
:102618004306D1D181EA030101F000414FF00000E7
:1026280070BD50EA410606BF1046194652EA4306F5
:1026380019D094EA0C0F02D150EA013613D195EA69
:102648000C0F05D152EA03361CBF104619460AD1B1
:1026580081EA030101F0004141F0FE4141F47001BB
:102668004FF0000070BD41F0FE4141F4780170BDAB
:1026780070B54FF0FF0C4CF4E06C1CEA11541DBF10
:102688001CEA135594EA0C0F95EA0C0F00F0A7F812
:10269800A4EB050481EA030E52EA03354FEA01313F
:1026A80000F088804FEA03334FF0805545EA131352
:1026B80043EA12634FEA022245EA111545EA10651A
:1026C8004FEA00260EF000419D4208BF964244F1B1
:1026D800FD0404F5407402D25B084FEA3202B61AD0
:1026E80065EB03055B084FEA32024FF480104FF4A4
:1026F800002CB6EB020E75EB030E22BFB61A754618
:1027080040EA0C005B084FEA3202B6EB020E75EBAA
:10271800030E22BFB61A754640EA5C005B084FEA12
:102728003202B6EB020E75EB030E22BFB61A7546DF
:1027380040EA9C005B084FEA3202B6EB020E75EBEA
:10274800030E22BFB61A754640EADC0055EA060EAB
:1027580018D04FEA051545EA16754FEA06164FEAEE
:10276800C30343EA52734FEAC2025FEA1C1CC0D19A
:1027780011F4801F0BD141EA00014FF000004FF027
:10278800004CB6E711F4801F04BF01430020B4F1E8
:10279800FD0C88BFBCF5E06F3FF6AFAEB5EB030CA0
:1027A80004BFB6EB020C5FEA500C50F1000041EB9D
:1027B800045170BD0EF0004E4EEA113114EB5C046A
:1027C800C2BFD4EB0C0541EA045170BD41F480113D
:1027D8004FF0000E013C90E645EA060E8DE60CEA45
:1027E800135594EA0C0F08BF95EA0C0F3FF43BAF62
:1027F80094EA0C0F0AD150EA01347FF434AF95EA19
:102808000C0F7FF425AF104619462CE795EA0C0FFC
:1028180006D152EA03353FF4FDAE1046194622E7C9
:1028280050EA410618BF52EA43067FF4C5AE50EAA3
:1028380041047FF40DAF52EA43057FF4EBAE12E793
:102848004FF0FF3C06E000BF4FF0010C02E000BF74
:102858004FF0010C4DF804CD4FEA410C7FEA6C5C57
:102868004FEA430C18BF7FEA6C5C1BD001B050EAFA
:10287800410C0CBF52EA430C91EA030F02BF90EAE5
:10288800020F0020704710F1000F91EA030F58BFA4
:10289800994208BF90422CBFD8176FEAE37040F006
:1028A800010070474FEA410C7FEA6C5C02D150EAA4
:1028B800013C07D14FEA430C7FEA6C5CD6D152EA5F
:1028C800033CD3D05DF8040B704700BF8446104624
:1028D80062468C461946634600E000BF01B5FFF723
:1028E800B7FF002848BF10F1000F01BD4DF808EDF3
:1028F800FFF7F4FF0CBF012000205DF808FB00BFC4
:102908004DF808EDFFF7EAFF34BF012000205DF81D
:1029180008FB00BF4DF808EDFFF7E0FF94BF01206A
:1029280000205DF808FB00BF4DF808EDFFF7CEFF6B
:1029380094BF012000205DF808FB00BF4DF808EDAA
:10294800FFF7C4FF34BF012000205DF808FB00BF7B
:102958004FEA410212F5001215D211D56FF47873BF
:10296800B3EB625212D94FEAC12343F0004343EA62
:10297800505311F0004F23FA02F018BF404270473D
:102988004FF00000704750EA013005D111F00040C7
:1029980008BF6FF0004070474FF00000704700BF5D
:1029A80037B50546002411E0AB5C0DF80230013262
:1029B800082AF9D123014FF6F071684603EA0101AC
:1029C800013408F04FFA0835082C11D000228DF890
:1029D80000208DF801208DF802208DF803208DF855
:1029E80004208DF805208DF806208DF80720DBE7F8
:1029F8003EBD73B50646002509E01DF80430335581
:102A08000134082CF9D101350836082D1AD02B01CC
:102A18004FF6F0710024684603EA010108228DF898
:102A280000408DF801408DF802408DF803408DF884
:102A380004408DF805408DF806408DF8074008F0F1
:102A480029F9DAE77CBD0000014B1878704700BF10
:102A5800285E0020014608B507480122052303F037
:102A68008EF90548012103F080F90348022103F09B
:102A7800D0F90028F9D008BD00240140000000006A
:102A88002DE9F04F002587B02E462C460420FFF78D
:102A9800E1FF9D4803F0BAF936180620FFF7DAFF80
:102AA800994803F0B3F90134642C0544EED1B6FB20
:102AB800F4F3964EB5FBF4F4954A3460954C1360E4
:102AC8002146002051F8042F934216D89249451EFA
:102AD80051F82510D21A5B1A9A42904D07D9FFF780
:102AE80037FC87A3D3E90023FFF7E4FA02E0323882
:102AF800FFF72EFCC5E9000102E00130A128E1D171
:102B08003368002054F8042F934216D88249441E93
:102B180051F82410D21A5B1A9A42814C07D9FFF750
:102B280017FC77A3D3E90023FFF7C4FA02E0323891
:102B3800FFF70EFCC4E9000102E00130A128E1D151
:102B4800784E764C96F93C00754D00EBD0704010ED
:102B5800FFF7FEFBD4E90023FFF7AEFA824696F9A9
:102B68003D008B4600EBD070C4E900AB4010FFF786
:102B7800EFFB0B460246D5E90001FFF79DFA6A4FC5
:102B8800A0463B78C5E90001022B684C0FD196F9A5
:102B98001600FFF7DDFB52465B46FFF7B1FE28B192
:102BA800634B03221A700123A37000E03870D8E940
:102BB800000100225F4BFFF7A3FE28B10123237019
:102BC8005B4B03221A7001E000232370D5E9000152
:102BD8000022584BFFF794FE08B1012300E00023C0
:102BE800554F6370D7E900ABD8E9002350465946E2
:102BF800CDE90223FFF75EFA0022504BCDE904012C
:102C0800FFF79CFE30B15046594600224B4BFFF768
:102C180051FA0CE0DDE904010022494BFFF770FE90
:102C280040B1504659460022444BFFF745FAC7E9E0
:102C3800000103E0DDE90223C7E90023414ED5E99D
:102C48000023D6E900AB50465946CDE90223FFF7E9
:102C580031FA0022394BCDE90401FFF76FFE30B19C
:102C6800504659460022354BFFF724FA0CE0DDE9BF
:102C780004010022324BFFF743FE40B1504659464B
:102C880000222E4BFFF718FAC6E9000103E0DDE940
:102C98000223C6E90023D7E900ABD6E90023C8E937
:102CA80000ABC5E9002350460022274B5946FFF7E1
:102CB800B5FBFFF74DFE0022064659465046002355
:102CC800FFF71EFE144F64224FF00A0E002841D071
:102CD800764296FBFEF30EFB136193FBFEFC00911C
:102CE8000EFB1C3319481A4996FBF2F2FDF778FAE5
:102CF80097F88432012B43D111223FE0AFF30080D3
:102D08000000000000C04840002401405459002041
:102D18008C590020FCFFFF1F00000020D05F00201E
:102D2800F85E0020E45D00204E5D0020705C00200D
:102D3800CC5F0020000044C0805D00200000E03F20
:102D48000000E0BFC05D002000002440745D00204A
:102D5800356A010896FBFEF30EFB136193FBFEFC3C
:102D680000910EFB1C334148414996FBF2F2FDF7F6
:102D780037FA97F88432012B02D113223D4B1A708F
:102D880097F88432012B0CD1093396FBF3F191FBB0
:102D9800F3F003FB1013374A5370642396FBF3F6E2
:102DA8009670D5E900890022334B40464946FFF723
:102DB80035FBFFF7CDFD0022054649464046002376
:102DC800FFF79EFD0A266422A8B16D4295FBF6F333
:102DD80006FB135193FBF6FE009106FB1E332748B2
:102DE800274995FBF2F2FDF7FBF997F88432012B9E
:102DF80017D1112213E095FBF6F306FB135193FB51
:102E0800F6FE009106FB1E331C48194995FBF2F2A9
:102E1800FDF7E6F997F88432012B02D11322194BFA
:102E28001A7097F88432012B0CD1093395FBF3F112
:102E380091FBF3F003FB1013124A5370642395FBC4
:102E4800F3F595702378012B03D108480E49FEF756
:102E5800CBFA6378012B06D108480C4907B0BDE8C6
:102E6800F04FFEF7C1BA07B0BDE8F08F745D0020DF
:102E78003E6A01085E5D002000002440625900207F
:102E8800356A0108EC5F0020476A01084D6A0108AD
:102E980001238B4010B5074A022114782343DBB283
:102EA8001370054A121892F885224020BDE8104098
:102EB80008F07EB8E45F00200000002001238B406A
:102EC80010B5074A0221147824EA03031370054A4F
:102ED800121892F885224020BDE8104008F068B822
:102EE800E45F00200000002070B5194D0378044607
:102EF800EB1893F88522174B402002211B7808F025
:102F080057F8A27863784E20EB18AD18022193F891
:102F1800852295F8853208F04BF80F4E002516F9F2
:102F2800013B012B05D1207869B2FFF7C7FF0323C6
:102F380006E0022B06D1207869B2FFF7A9FF00232B
:102F480006F8013C0135EDB2042DE8D170BD00BF93
:102F580000000020E45F0020825C0020044B05494B
:102F68005A6882180A6059688A42FCD8704700BFBC
:102F7800700D0020DC5F0020074B5A680A325A6047
:102F88001A680A321A609A6801329A60034B1A88E2
:102F980001321A8002F06CB9700D0020785C0020B4
:102FA800734BF0B59A681C46642A40F2C180714B95
:102FB8001A78511C3B2A19700CD96F4A11780129CB
:102FC80006D16E4801680139016009B902311170F2
:102FD80000221A700023A36069480268D25C022AA2
:102FE80040F0A280674A684C1168CD5C002D41D042
:102FF800013DCD54654D2968CE18C95C41B11768AB
:10300800FF5C2FB90139317011683B20C85431E099
:103018005F4E3668F718F65C46B100292AD1013EA2
:103028003E7028683B31C154106806E011BB156832
:10303800ED5CFDB9012B02D10068C1541AE0022BE6
:103048000ED101680320C8542178082901D00B2922
:1030580010D1092121704F494FF40040486109E01F
:10306800032B02D10168CB5404E000680125C55444
:10307800494801702178082956D9022B54D1126881
:103088009178372903D143494FF40040086191787A
:10309800362903D13F494FF40040486191782D29E2
:1030A80003D13C494FF40040086191782C2903D1A1
:1030B80038494FF4004048619178232903D13549B4
:1030C8004FF4004008619178222903D131494FF427
:1030D800004048619178192903D12E494FF40040E6
:1030E80008619178182903D12A494FF400404861B2
:1030F80091780F2903D127494FF40040086191784E
:103108000E2903D123494FF40040486191780529DD
:1031180003D120494FF4004008619278042A03D172
:103128001C4A4FF4004151610133052B7FF454AF21
:103138001A4A1378082B11D9194B1978012903D188
:1031480002311970023104E0197821B9053119707A
:103158000139144B197000231370F0BD022B05D9E7
:10316800104B01221A70104B013A1A70F0BD00BFC3
:10317800700D0020945D00204E5D0020005F00204F
:10318800645D00205C59002020590020D85D002093
:103198006C5C00200018014050590020DD5D0020C3
:1031A800CC5F0020D85F0020BE5D002010B5044C25
:1031B800606800F0B7FF6068BDE8104000F092BF9B
:1031C800700D002008B50A20FDF7CCFB084B1860ED
:1031D8000A20FDF7C7FB074B18600A20FDF7C2FB62
:1031E800054B18600A20FDF7BDFB044B186008BDAD
:1031F800645D00206C5C0020D85D00205C590020D4
:103208000023094A11680022CA5408490968CA54A7
:1032180007490968CA5407490968CA5401330A2B7F
:10322800EFD1054B1A707047645D00206C5C00207C
:10323800D85D00205C590020285E002007B50A4AA6
:103248004FF480431361ADF80430032301288DF84F
:10325800063001D1013300E01023034801A98DF89D
:10326800073002F045FE0EBD0014014010B50822DB
:10327800094B4FF40051596110F0010F0C464FF4FF
:10328800804114BF19615961013AD2B21C610AB177
:103298004008EDE710BD00BF001401402DE9F041E2
:1032A800124E4FF400534FF4004704467761002054
:1032B800736190460D46FFF7C1FF37612046FFF75F
:1032C800D5FF4646002405E016F8010BFFF7CEFFB0
:1032D8000134E4B2AC42F7D3044B4FF400425A61D4
:1032E8004FF400525A61BDE8F08100BF001401405C
:1032F8000C4B212130B50246D971C51D03461C78F7
:103308000A20B4FBF0F100FB114000EB011103F8B7
:10331800011BAB42F3D1BE200821BDE83040FFF7C6
:10332800BDBF00BF555D00201D4B2DE9F0470C4681
:1033380091464FF400514FF400425A6159611A61A5
:10334800FFF794FF0120FFF779FF00251AE008270F
:103358000026DFF84C804FF4005AC8F814A0404605
:103368004FF4804102F013FE7608013F46EAC0168A
:10337800FFB2F6B2C8F810A0002FEAD1013509F85B
:10338800016BEDB2A542E2D3054B4FF400425A61FE
:1033980000204FF400525A61BDE8F047FFF74EBFD6
:1033A8000014014030B5BF20082189B0144AFFF746
:1033B800BBFF134BD81D19461A78150902F00F04E4
:1033C8000A2202FB054203F8012B8342F4D18879D3
:1033D8000A794B79009088780190487802900978AA
:1033E8000391084908680490486805908868069021
:1033F800C968054807910549FCF7F2FE09B030BDD8
:103408008C5D002068590020285900208D6A010829
:1034180037B54AF200031025032401A91048ADF876
:1034280004308DF807508DF8064002F061FD4FF426
:10343800804301A90A48ADF804308DF807508DF88B
:10344800064002F055FD48F20003064801A9ADF810
:1034580004308DF807508DF8064002F049FD3EBD56
:10346800001401400018014010B5044607F04CFB59
:10347800164B1B78002B27D1C0B27CB9144B28B14E
:10348800144A022191701B6801220CE01B685B78CA
:10349800022B19D00F4B01229A7010E0012C06D193
:1034A8000C4B10B102225A7009E05C7007E0022C44
:1034B80005D1084B08B1DC7001E00122DA70204622
:1034C800BDE8104007F0CABA10BD00BFCC5F0020AD
:1034D800645D0020825C002070B53D4B04461B787B
:1034E800012B03D13B4B93F82B3009E0082B03D178
:1034F800384B93F82C3003E003D9364B93F82D3032
:103508001C40002007F000FB04F00103324A334955
:1035180008B30120324D6BB10B689070D8702B78CE
:10352800002B42D12B4B287093F914103B3093F9A0
:10353800153024E00E687070096802209070CB7016
:1035480028490968CB7028490968CB702749096858
:10355800CB702B7027E0BBB10B685B78022B02D1D4
:1035680004F0FE0421E01E4B012118789170E0B9A7
:103578001970184B3C3093F9141093F9153000FB6F
:1035880001311B4B196010E0096802209070CB7064
:1035980014490968CB7014490968CB701349096844
:1035A800CB700F490B7012490B6014F0020F01D059
:1035B800012300E0022314F0040F537001D001230B
:1035C80000E002232046D370BDE8704007F00EBA31
:1035D80020590020E45D0020825C0020645D00200A
:1035E8004E5D00206C5C0020D85D00205C590020F6
:1035F800005F00202DE9F84F844F854C3B78012B64
:1036080040F0F4812368834E1B78834D012B51D100
:1036180032788249032A88BF337033780A685B009E
:10362800DBB2072B88BF0023E85CEB1810707C4ADC
:103638005B78106803703378022B13460AD1794AF5
:103648005278012A06D10A680020107072481A6858
:10365800007E10701868744B027882B9D1F800E0C7
:103668009EF800C0BCF1000F09D06D4A0CF1FF3C78
:103678008EF800C011683B220A701B680DE00968CB
:10368800097831B92AB91A680123137022681370AE
:1036980007E0013A02701B683B221A702368393A26
:1036A8001A703378EB1893F82500FFF715FF337875
:1036B800013333703378DFF87C81022B20D195F900
:1036C8000800FEF745FED8E900AB02460B46504617
:1036D8005946DFF84491FFF713F910B199F829001A
:1036E8000CE099F90900FEF733FE02460B465046F6
:1036F8005946FFF723F918B199F82A00FFF7ECFEAD
:103708003378032B49D1DFF83091DFF830B199F8DD
:1037180000A0BAF1000F10D195F90A00FEF718FEC3
:1037280002460B46DBE90001FFF708F9B0B1236850
:1037380001221A7089F800A010E095F91100FEF72F
:1037480007FE02460B46DBE90001FFF7F7F828B150
:10375800236801221A70002389F8003095F91200B5
:10376800FEF7F6FDD8E900AB02460B46504659462F
:10377800FFF7E4F808B105220CE0274B93F9130092
:10378800FEF7E6FD02460B4650465946FFF7B8F8E5
:1037980018B10122254B83F884222368244A9B7898
:1037A800012B01D0032B53D11C4B002019689E46D6
:1037B800887021681A4B8978012902D11968E87A3A
:1037C80006E003290CD11178092903D119680120D1
:1037D800887005E01968287B8870154908200870EA
:1037E8001968114B887858BBDEF800E09EF802C0D3
:1037F800BCF1000F24D00A490CF1FF3C8EF802C03E
:1038080008683B2181701B681EE000BFCC5F002068
:10381800645D0020285E0020E45D00206C5C0020D0
:10382800D85D0020705C00205C590020000000205A
:1038380020590020D05F002050590020F85E002059
:10384800013888701B683B219970236802219970A0
:1038580092F80090B9F1010F16D123689B789BB9B3
:10386800934802F09AFB934B188095F82B3003EAA3
:103878005020914B1870FFF72FFE904B83F8009063
:103888008F4B1B6883F8029095F92E208D4B002AE8
:103898005AD08D4A0120D178884055D093F90D002F
:1038A8009178884250D193F90E10527891424BD1B9
:1038B800864A11789446002946D18549D87B0A68FA
:1038C8001070844A1B7C106803701068824B90F853
:1038D80000E0BEF1000F14D1D1F8009099F800A0D3
:1038E800BAF1000F0DD00AF1FF3A89F800A0D2F81A
:1038F80000E03B208EF80000D3F800E08EF80000CE
:1039080008E00EF1FF3E80F800E018684FF03B0E2B
:1039180080F800E071484078012809D10968013829
:103928000870297E1268013911701B683B221A70D1
:10393800236802221A7001238CF8003095F82700BA
:10394800FFF7CAFD032333702368DA78012A22D1EE
:103958005F4E00213368D9705E4B1968CA701968C8
:103968005D4AC87878B9366896F803E0BEF1000F6A
:1039780009D00EF1FF3E86F803E019683B23CB70AF
:103988001268D37004E00138C87013683B22DA70FB
:1039980023680222DA702668F378022B11D1D8E95D
:1039A800000100224E4BFEF7ABFF50B10023484AFE
:1039B800F3701268D370474A1268D370464A126887
:1039C800D370236895F91300DB78032B08BF3B708D
:1039D800FEF7BEFC02460B46D8E90001FEF790FF51
:1039E80020B3404B012283F884221FE03B78032B4D
:1039F8000AD1FFF705FC3C4B002018703B4B387090
:103A08001870FFF769FD11E03B78052B0ED1FFF721
:103A1800F7FB354B002221681A7001230B702F49E0
:103A28003B708A70CA702F4A82F8843223685B78A8
:103A3800012B11D1264B00221B685A70214A254BB5
:103A4800D27D1B68013A5A70234B3B221B685A707F
:103A58001B4B393A1B685A703B78012B25D1234BF5
:103A68001D78012D17D123689B78F3B9104802F00F
:103A780094FA104B1880134B93F82B3003EA50201C
:103A88000D4B1870FFF728FD0C4B1D700C4B1B6875
:103A98009D70BDE8F88F45B90D4B1B689D700D4BA7
:103AA8001B689D700C4B1B689D70BDE8F88F00BFAC
:103AB80000180140265E002061590020D95F0020CF
:103AC800645D0020E45D00208C5D002050590020DA
:103AD8006C5C0020D85D00205C590020705C0020E0
:103AE8000000364000000020285E002020590020F9
:103AF80070B57048022101F0D1FF002800F0148150
:103B08006D4C02216B4801F0D4FF2378012B01D1C1
:103B1800013B17E00A2B09D16848FEF741FF6748C7
:103B2800FEF767FF6648FFF7E3FB0AE00E2B03D1B9
:103B38006248FEF735FF01E00B2B04D15F48FEF722
:103B480058FF002323705F4A5F4B1178012914D175
:103B58005E4908780130C0B20428087002D90020F4
:103B6800107008705B78012B3DD1594B0E221A70EA
:103B78000C3A5A7011329A7035E0052919D1534917
:103B880008780130C0B20128087002D900201070EE
:103B980008704F4A5B78002111700F31012B51706A
:103BA800917020D10D3313700C3B53701133937007
:103BB80019E0042919D1454908780130C0B2012813
:103BC800087002D9002010700870414A00215B7803
:103BD8001170123151700131012B917003D10D33E5
:103BE80013700C3B53703A4829E01A78012A05D122
:103BF800384B0E215A70197012321EE05A78012A79
:103C080012D1324B1A780132D2B2632A1A7015D9FE
:103C180030490E2008700C38487011306B2A8870B3
:103C28000CD900221A7009E09B78012B06D1294B88
:103C38000E221A700B3A5A7010329A702548FFF704
:103C480053F92548102102F0A2F91C4C0546234BD4
:103C5800234AC0B9234E1870022313703378012BFE
:103C680016D1214B1B78E31893F82400FFF734FC96
:103C78001E4B35701B689D701D4B1B689D701D4B3E
:103C88001B689D7004E01878012100B91970117043
:103C980040210022184807F0DFF9174B5B6813F042
:103CA8002002164B2CD000221A70012384F83F30D2
:103CB8002BE000BF0004004060590020E45D0020B4
:103CC800555D0020D85F0020705C0020BE5D00209C
:103CD800EC5F00205E5D00200014014020590020A8
:103CE800825C0020D95F0020285E0020645D0020EF
:103CF8006C5C0020D85D002068590020DD5D002044
:103D0800197884F83F2001311970FFF74BFB2D48D3
:103D180001F0B7FE2C4B98812C4BB3F89A1241183E
:103D280089B2284801F0A4FE2648042101F0B6FE15
:103D380090B10421234801F0BCFEFEF7A1FE214802
:103D480001F0A2FE204B9881204BB3F89C12411839
:103D580089B21C4801F08EFE1A48082101F09EFE27
:103D680080B10821174801F0A4FE164801F08FFE23
:103D7800154B9881154BB3F89E12411889B211481A
:103D880001F07AFE0F48102101F088FEC0B1102121
:103D98000C4801F08EFEFFF703F90D4B1878FFF77A
:103DA80029FC084801F076FE074B9881074BB3F8C9
:103DB800A0124118034889B2BDE8704001F05EBE08
:103DC80070BD00BF00040040700D002000000020FE
:103DD800285E00202DE9F041012188B0022001F081
:103DE80087FC1D238DF81C30193B01248DF81D30EC
:103DF80007A8013BDFF8E4808DF81E308DF81F40DE
:103E080001F0FEFE4FF0FF330027ADF8143004A98F
:103E18004EF65F233048ADF81030ADF81670ADF8A7
:103E2800127001F0C1FCB8F89A3269462A48ADF818
:103E38000630ADF80070ADF80240ADF8087001F03A
:103E4800D3FC3946244801F0EDFDB8F89C326946A8
:103E58002148ADF80630ADF8024001F007FD3946BB
:103E68001D4801F0E8FDB8F89E3269461A48ADF8D9
:103E78000630ADF8024001F041FD3946164801F020
:103E8800E4FDB8F8A08269461348ADF80240ADF8E1
:103E9800068001F079FD39460F4801F0DFFD224622
:103EA8001E210D4801F0B3FD21460B4801F0A2FD8B
:103EB8004FF4A06001F09AFE07A83E4625468DF80B
:103EC8001C708DF81D408DF81E708DF81F4001F094
:103ED80097FE08B0BDE8F081000400400000002013
:103EE8002DE9F04100F08EFB072006F071FD464BEE
:103EF80000241C60454B01261C60454B454A1C604C
:103F0800454B464F1C70464B464D83F88462464BE2
:103F1800DFF854811C70454B3E701C70444B88F888
:103F280000401A60434B6FF07F421A60424A434B8D
:103F38002C701A606C70AC70EC7007F0FDF800F033
:103F480095F800F089FC00F009FD3D4B1C60FFF777
:103F580039F906F085FE072006F02CFD394BFF22C3
:103F68001A703948FEF745FD402006212246F02305
:103F780007F01EF84020022122460F2307F018F808
:103F88004E2006212246234607F012F84E202246EC
:103F98002346022107F00CF8FFF73AFAFFF702FA76
:103FA800FFF72EF9294B4FF400421B687D201E7045
:103FB800274B3E701C60274B1C60274B1C70274BFF
:103FC8005A61274B88F800401C6001F0BBFB18B110
:103FD80001F0E2FB3C70EE7045F2555001F036F905
:103FE800032001F039F940F25D1001F03BF901F0CE
:103FF8003FF901F045F9FFF7EDFE1A4B00221A7060
:10400800FFF7D4F8FCE700BFE05D00205859002016
:1040180088590020C8C8025F50590020CC5F002092
:1040280000000020705C002060590020D95F00204B
:104038005C5A002090590020C8C80201685D002021
:10404800505D0020E45F0020E45D0020645D0020F6
:104058008C59002054590020205900200018014094
:10406800E05F0020955D0020285E002010B5012348
:1040780086B000248DF815308DF810408DF8114069
:104088008DF812408DF813408DF8144003F090F924
:1040980003F09EFA04A805F0CDF8094B09490193ED
:1040A800094B0A4A02930A480A4B009403F010FB92
:1040B800074803F031FB064803F034FB06B010BD97
:1040C800659200085C5A002079A5000890590020E4
:1040D800F05F0020685D0020014805F055B900BF79
:1040E800F05F002013B50E4C0190019A2368D31A93
:1040F800F92B03D9019B236004F0F0F8019A636857
:10410800D21A41F287339A4207D9019A044B5A606E
:1041180002B0BDE8104006F0DDB802B010BD00BF27
:104128008C0D002000B5194A8BB003900399936851
:10413800CB1AF92B27D9039BD1689360144B5B6882
:10414800994220D0D3601A0E8DF824201A0CD2B2CE
:104158008DF825201A0AD2B2DBB28DF826208DF808
:1041680027309DF827209DF826309DF825009DF8DA
:1041780024100090019104A80649FCF731F840F694
:10418800B830FEF7EBFE0BB000BD00BF8C0D002071
:10419800F05F0020B96A01087047FEE7FEE7FEE716
:1041A800FEE7704770477047FEF7E6BE70470000AD
:1041B80010B5244840F2255101F0F8FC10B321480D
:1041C80001F0F0FCC0B243B21D2B1F4C05DD237873
:1041D8001E4AD0540133DBB208E0032B07D11B4839
:1041E8000021C8222378FCF777FF00232370184AA0
:1041F800237812789A4205D1124840F225510022BC
:1042080001F0B1FC0F4840F2277101F0CFFCB8B1C2
:10421800104C114A23780B48D15C0133DBB2237070
:1042280001F0BCFC0D4A237812789A4208D105485F
:10423800002240F227712270BDE8104001F093BCC3
:1042480010BD00BF00440040870D0020865C0020A0
:10425800A5020020850D002094590020A30200200B
:1042680010B501E0FFF738FF02F05CF90028F9D13A
:10427800403002F081F94FF48030BDE8104002F080
:104288007BB910B54FF4804001F008FE28B14FF417
:104298008040BDE8104001F00FBE10BD0001024B88
:1042A800C0B283F82300704700ED00E010B586B077
:1042B80001F0D2F84FF4803001F0F4F801F056FA2A
:1042C800012804463DD1102001F006FE022001F02D
:1042D800F9FD002001F05EF9002001F06FF94FF4BC
:1042E800806001F061F94FF4004001F077F9402057
:1042F80001F014F94FF4C06001F01AF9204601F0FA
:1043080021F93B2001F01EFA0028FAD04FF4803042
:10431800042101F0F5F84FF480304FF4E01101F07A
:10432800DDF8012001F0E6F8392001F00BFA002849
:10433800FAD0022001F01CF901F024F90828FBD179
:1043480000E0FEE701A801F053F9002001F040F970
:1043580001214FF4805001F0B3F901214FF40030EE
:1043680001F0C6F901214FF4E03001F0A9F97D20F0
:10437800012101F0B1F94FF40070012101F0ACF90D
:1043880006B010BD10B50120B0B001F055FE4FF4D5
:10439800004001F0DDF8012001F0E4F83D2001F0D3
:1043A800D1F90028FAD00B2001F0C6F901F058FE27
:1043B80002F0D2F802F0D8F80128FBD001A801F0E9
:1043C8005CFE002308930C930F9312931493159398
:1043D8001693219326932793043329934FF480331C
:1043E8002B934FF4800301242C934FF400724FF465
:1043F80000114FF400530B9224914FF000722D934B
:1044080021464FF4804301A8019422922A922F93C7
:1044180001F0DAFE0248214602F0EAF830B010BD99
:10442800400001002DE9F3410426032418250DEB73
:1044380006013C488DF806400227ADF804608DF867
:10444800075001F055FD0DEB060137488DF8064081
:10445800ADF804708DF8075001F04AFD4FF4605331
:104468000DEB06013148ADF804308DF806408DF8A3
:10447800075001F03DFD0DEB06012A488DF8064076
:10448800ADF804708DF8076001F032FD01214FF09E
:10449800201001F08BFD4FF4E0630DEB060124487A
:1044A800ADF804308DF806408DF8076001F020FD66
:1044B8004FF480730DEB06011A48ADF804308DF8FF
:1044C80006408DF80750033C01F012FD10230DEB58
:1044D80006011448ADF804308DF8074001F008FDD6
:1044E80020230DEB06010F48ADF804308DF8074086
:1044F80001F0FEFC40230DEB06010A48ADF804303C
:104508008DF8074001F0F4FC802306480DEB060106
:10451800B046ADF804308DF8074001F0E9FCBDE87D
:10452800FC8100BF0008014000100140000C014060
:104538000014014010B5012186B04FF4007001F05D
:10454800CBF8164801F098FB01A801F0E9FB01241B
:1045580000234FF46022114801A901938DF8083017
:104568008DF80930039204938DF8144001F0B2FBE2
:104578000A48214601F0DDFB084801F0E4FB074842
:1045880001F0E6FB0128FAD0044801F0E5FB0348F6
:1045980001F0E7FB0128FAD006B010BD0024014065
:1045A80013B500214FF0006001F05CFB4FF4A060F0
:1045B80001F01CFB01243D2301A88DF804308DF87F
:1045C80005408DF806408DF8074001F019FB4FF4BF
:1045D800407001F00BFB252301A88DF804308DF8FD
:1045E80006408DF8074001F00BFB26238DF80430B8
:1045F80001A8243B8DF806308DF8074001F000FB38
:104608001CBD000010B586B006F000F906F0FEF8F3
:10461800FFF74CFE01214FF4003001F069F8012149
:104628004FF4E03001F04CF8012140F27D2001F018
:1046380053F8FFF7B5FFFFF77DFFFFF7F3FE002004
:1046480006F09AF9012006F097F9022006F094F98D
:10465800032006F091F9042006F08EF9052006F0F3
:104668008BF9062006F088F9072006F085F9002066
:1046780006F0AEF9012006F0ABF9022006F0A8F921
:10468800032006F0A5F9042006F0A2F9052006F09B
:104698009FF9062006F09CF9072006F099F9FFF724
:1046A80071FE01A800F0A4FF019A6423B2FBF3F3A2
:1046B800B3F1807F0BD20A4C23F07F43013B636048
:1046C8000F20FFF7EBFD0023A360073323600120D1
:1046D800FFF7E4FD0220002106F0D0F906B010BD76
:1046E80010E000E010B524200C46012102F062FF22
:1046F8000146204603F039FB2046044903F03DFB00
:104708002046034903F033FB002010BD1D47000875
:104718002D470008024B00221A7002F061BE00BF4C
:10472800955D00202DE9F04104460D461F461646CA
:10473800002A79D00846118903F0E3FA24B93046F3
:1047480003F064F8F22679E033460022D3F804E057
:10475800002115E01EF801707AB20D2A05D0A2F1E9
:104768000A00424242EB000200E0012220681F28B2
:1047780005DC04EB000C01308CF80470206001317A
:104788005889814201DA002AE4D01B68002BDDD168
:10479800002A44D02368E21892F902100D2903D1A7
:1047A80092F903100A2915D092F903200D2A01D095
:1047B8000A2A03D11F2B05DC013304E01E2B01DC80
:1047C800023300E02023236023680D22E3189A7047
:1047D800033ADA701B4906220123284601F0EAFF52
:1047E800211D22880123284601F0E4FF00232360CD
:1047F8001548FCF757FE144982B20123284601F0F8
:10480800D9FF1248FCF74EFE012382B20F49284611
:1048180001F0D0FF0E4B01221D600E4B1A7030467E
:1048280002F0F4FF002609E043B902F0D9FD094B74
:1048380028461F70BDE8F04103F0FEBC70B2BDE829
:10484800F08100BFCC6A010828590020965D00203D
:10485800C85D0020955D002010B503F0D7FD4CF22F
:10486800DA520446054903F0ADF9FF21204603F06A
:10487800DDF90349BDE8104003F082BAC8660108B3
:10488800ED46000838B508200D4602F041FE014605
:1048980098B1002404604460284603F066FA28466C
:1048A800074903F064FA2846064903F066FA2846E1
:1048B80005490A2203F066FA00E0FF2460B238BD19
:1048C800C149000819490008FF48000838B54B6875
:1048D800B0F86E500C469D4228BF9DB209682A4622
:1048E800002301F067FF28B923685B192360636818
:1048F8005D1B656038BD08B5034618B9084603F066
:104908009BFC03E008461946FFF7E0FF002008BDBE
:1049180002F066BD70B504460D46002103F025FA85
:104928002046002103F026FA2046002103F01FFA52
:10493800284602F055FD2046BDE8704003F07CBCD7
:1049480008B503465A6808461AB11946FFF7BEFF6C
:1049580002E01946FFF7DEFF002008BD10B503F09E
:1049680055FD50220446064903F02CF9FF21204644
:1049780003F05CF90349BDE8104003F001BA00BF39
:10498800C86601088D48000870B506460D46094CF2
:104998000BE030466168FCF739FC28B9A3680130A0
:1049A8002B60E3686B6070BD2468002CF1D1204651
:1049B80070BD00BF14B300082DE9F04FADF5337D8D
:1049C800144602AF002205460E46C7F8B022C7F8C3
:1049D800B422002B40F02084002C00F023840846E9
:1049E800218903F08EF92B68002B40F01284D4F84B
:1049F8000480C24940460D22FCF7B2FD38B140465A
:104A0800BF490E22FCF7ACFD002840F0DC812046AF
:104A180002F0FCFEBB4BBC4C1A78DFF8348384F8F8
:104A280032205A78DFF82CA384F833209A78DAF801
:104A3800001084F83420DA78DFF81C9384F83520E5
:104A48001B7907F5187084F83630B04B1A7884F85B
:104A580057205A7884F858209A7884F85920DA78B8
:104A680084F85A201B7984F85B30D8F8003009782C
:104A78001A78D9F800301B780091A549FBF7B0FBEC
:104A880097F86032DAF8001084F8A53097F86132A8
:104A980007F5187084F8A63097F8633284F8A830C0
:104AA80097F8643284F8A93097F8663284F8AB3006
:104AB80097F8673284F8AC30D8F8003049785A78DB
:104AC800D9F800305B7800919149FBF789FB97F89A
:104AD8006032DAF8001084F80A3297F8613207F584
:104AE800187084F80B3297F8633284F80D3297F80F
:104AF800643284F80E3297F8663284F8103297F8E8
:104B0800673284F81132D8F8003089789A78D9F861
:104B18000030DFF848829B78009198F80010C24670
:104B280001917C49FBF75CFB04F51672002307F53D
:104B38001871C95C01330B2B02F8011FF7D1764AB3
:104B48000B3B7649595C0133112B02F8011FF8D150
:104B5800202213460092724907F51870FBF740FBB4
:104B680097F86032DFF8F89184F8923297F861325A
:104B780007F5187084F8933297F86232694984F817
:104B8800943299F93C20FBF72BFB4FF0000B664B56
:104B980005E018F80B200BF1010B03F8012F07F5BE
:104BA800187840467B60FCF77DFC83457B68F0D332
:104BB8002022134600925A494046FBF711FB97F80A
:104BC8006032404684F8B63297F86132554984F825
:104BD800B73297F8623299F93D2084F8B832FBF77A
:104BE800FFFA4FF0000B514B05E018F80B200BF1C2
:104BF800010B03F8012F07F5187840467B60FCF796
:104C080051FC83457B68F0D3FDF71EFF99F93F10EF
:104C18009AF800300246009140464549FBF7E0FA11
:104C280097F86032DFF8E09084F87C3097F86132CA
:104C380084F87D3097F8623284F87E3097F86332D2
:104C480084F87F3097F8643284F8803097F86532BA
:104C580084F88130374B1B78012B05D14046364903
:104C6800FCF7C2FB662308E0344B9A78012A07D187
:104C780040463349FCF7B8FB322389F845320BE04C
:104C8800DB784FF0320A012B40460CBF2D492E49E4
:104C9800FCF7AAFB89F845A297F860322B4884F8FC
:104CA800333297F861324FF4007184F8343297F850
:104CB8006232DFF8548084F8353297F8633284F82A
:104CC800363297F8643284F8373297F8653284F8C8
:104CD800383297F8663284F8393201F058F908B159
:104CE8006E2300E0662388F8D63018484FF48061B8
:104CF80001F04DF9B0B36E2335E000BFD36A010867
:104D0800E16A0108745D0020A802002062590020B1
:104D1800F06A0108FF6A010882050020285900206E
:104D2800136B01081A6B0108390500205D05002086
:104D38001D6B0108CC5F0020296B0108705C002006
:104D4800316B0108396B0108416B010800180140FB
:104D58006C5C00205C590020D85D002020590020A0
:104D6800E45D0020662384F80431B6484FF40061FE
:104D780001F00DF908B16E2300E0662384F83231A2
:104D8800B0484FF4805101F002F908B16E2300E0F9
:104D9800662384F86031AB484FF4005101F0F7F80E
:104DA80008B16E2300E0662384F88E31A5484FF4DD
:104DB800804101F0ECF808B16E2300E0662384F826
:104DC800BC31A14812E24046A0490D22FCF7C8FBBD
:104DD80028B140469E490E22FCF7C2FB20B9204666
:104DE80002F014FD9B4801E240469B490922FCF76A
:104DF800B7FB18B9204602F009FDF6E1404697498D
:104E08000B22FCF7ADFB38B1404695490C22FCF764
:104E1800A7FB002840F0CB8000214FF4167207F161
:104E28000800FCF759F900214FF4167207F1080041
:104E3800FCF752F907F108008A49FCF7D5FA4FF058
:104E48000008DFF840A200231AF90820864907F570
:104E58002E70C7F8B83287F8BC32FBF7C1F907F5EE
:104E68002E70FCF71FFB08F10108024607F52E71AA
:104E780007F10800FCF746FBB8F1180FE1D10AF179
:104E880017090AF1240A19F8012F78494FF0000888
:104E980007F52E70C7F8B88287F8BC82FBF7A0F92F
:104EA80007F52E70FCF7FEFA07F52E71024607F19A
:104EB8000800FCF727FBD145E5D16B49252207F50A
:104EC8002E70C7F8B88287F8BC82FBF789F907F516
:104ED8002E70FCF7E7FA07F52E71024607F1080075
:104EE800FCF710FB6049262207F52E70C7F8B88238
:104EF80087F8BC82FBF774F907F52E70FCF7D2FA35
:104F080007F52E71024607F10800FCF7FBFA07F1D6
:104F180008005749FCF752F9DFF86C8108F10A09D3
:104F2800002318F9012F504907F52E70C7F8B83239
:104F380087F8BC32FBF754F907F52E70FCF7B2FA84
:104F480007F52E71024607F10800FCF7DBFAC845A1
:104F5800E6D1484907F10800FCF730F907F10800E5
:104F6800FCF7A0FA00F10E0323F007038046EA4697
:104F780007F10800ADEB030DFCF794FA0DF10809F1
:104F8800024607F108014846FCF73AFB204602F0C2
:104F98003DFC30462946C5F80090C5F80480FFF767
:104FA80095FC3046344902F0E5FED54634E14046EA
:104FB80032490F22FCF7D4FA8146002840F0C58018
:104FC80098F912306C2B77D198F8152053B2312B01
:104FD80002D0322B03D10120FEF746FA68E0332BCA
:104FE80001D10220F8E7342B01D10320F4E7352B57
:104FF80001D10420F0E7362B01D10520ECE7372B4F
:1050080002D1FEF769FA53E0382B07D11C4B1A7806
:10501800012A01D102324AE0052248E0392A47D163
:1050280098F91630302B04D1164B93F83C200132F6
:1050380005E0312B2AD1134B93F83C20013A83F831
:105048003C2032E000180140D76A0108496B01088A
:10505800576B01084D6B0108666B01087C6B0108F2
:10506800886B0108956B01089E6B0108A36B01080A
:10507800A86B0108B66B010849490008BA6B01081A
:10508800CC5F0020E45D0020085E0020322B04D1B4
:10509800674B93F83D20013205E0332B05D1644B73
:1050A80093F83D20013A83F83D20624B0E221A7096
:1050B800204602F0ABFB84E698F90F20252A40D160
:1050C8003A2B3ED107F53071404621F8083DFCF7F0
:1050D800D5FAC84630E0B9F1000F21D0FBF73AFC09
:1050E800B8F1250F18D0B8F1260F15D0A8F1310363
:1050F800DBB2072BC0B204D84F4B434403F8310C42
:105108000AE0A8F12703DBB2092B494B9ABF4344B5
:1051180003F8020C03F8080008F101085FFA88F8A0
:10512800B8F1390F0AD0002007F52E71FCF7A6FA5E
:1051380009F101095FFA89F90028CCD13D4B0A220F
:105148001A70204602F062FB54E040463B490422B4
:10515800FCF706FAD8B9434608F1280193F9042068
:10516800202A03D00D2A01D00A2A01D100221A715F
:1051780001338B42F2D1002308EB0302127907F5C1
:105188002271CA543AB30133282BF5D123E04046A3
:105198002B490522FCF7E4F9002843D1434608F1DE
:1051A800280193F90520202A03D00D2A01D00A2AC4
:1051B80001D100225A7101338B42F2D1002308EB4E
:1051C8000302527907F52271CA5422B10133282B00
:1051D80001D0142AF3D1204602F018FB07F52270FB
:1051E80007F52C71FFF7D0FB20B9164807F52C718D
:1051F800FFF7CAFBD7F8B03230462B60D7F8B43285
:1052080029466B60FFF762FB30460F4902F0B2FD9A
:1052180002E0204602F0FAFA002007F53177BD4691
:10522800BDE8F08F30462946FFF774FBF4E700BF6E
:10523800E45D002060590020555D0020CA6B01081C
:10524800CF6B0108706B010849490008014B1860D1
:10525800704700BF00300040014B5860704700BFE6
:1052680000300040014B9860704700BF003000409C
:10527800024B4AF6AA221A60704700BF003000406D
:10528800024B4CF6CC421A60704700BF0030004019
:10529800F0B587B00446868801A80D46304F00F067
:1052A800A7F9039826F03F063604B0FBF7F7360C4B
:1052B800BFB247EA0606A68021882A6821F00101C4
:1052C800284B0904090C9A4221800AD85300B0FBE4
:1052D800F3F301379BB2BFB22784032B98BF042393
:1052E80022E0E9884BF6FF73994205D102EB4202AE
:1052F800B0FBF2F39BB206E019235343B0FBF3F380
:105308009BB243F480431A05120D0AB943F0010316
:105318004FF4967257434FF47A7297FBF2F70137BE
:10532800BFB243F400432784A383238869899BB2CF
:1053380043F0010323802388AA8823F4806323F0A1
:105348000A031B0441EA02021B0C13439BB223808D
:105358002A89AB8942EA03039BB2238107B0F0BDD7
:1053680040420F00A086010021B103889BB243F0A0
:10537800010304E0038823F001031B041B0C0380D2
:10538800704721B103889BB243F4807304E003881B
:1053980023F480731B041B0C0380704721B103881E
:1053A8009BB243F4007304E0038823F400731B04E6
:1053B8001B0C0380704721B103889BB243F48063C0
:1053C80004E0038823F480631B041B0C03807047EC
:1053D80001827047008AC0B2704712B141F00101E2
:1053E80001E001F0FE010182704782B000230193C1
:1053F8000190019BCB180193019B188880B202B0E1
:105408007047838A008B9BB243EA004020F07F40BC
:10541800431A584240EB0300704782B000230193BF
:1054280000930B0F00900193019B21F07F4113B172
:10543800009B143302E0009B090C18330093009B77
:105448001B6819420CBF0020012002B07047C943F5
:1054580089B2818270470000104B1A6842F001023D
:105468001A6059680E4A01EA02025A601A6822F064
:10547800847222F480321A601A6822F480221A6038
:105488005A6822F4FE025A601A6822F0A0521A6082
:105498004FF47F029A600022DA62704700100240DF
:1054A8000000FFF00C4BB0F5803F1A6822F4803200
:1054B8001A601A6822F480221A6003D0B0F5802F8F
:1054C80009D104E01A6842F480321A6070471A68F9
:1054D80042F4A0221A60704700100240044B5A6838
:1054E80022F4741240EA02020A435A60704700BF6D
:1054F80000100240014B1860704700BF6000424234
:10550800054AD36A23F4803323F00F0340EA0303E8
:105518000B43D362704700BF00100240034BDA6AA6
:1055280022F0F00240EA0202DA62704700100240FC
:10553800034BDA6A22F4706240EA0202DA627047C8
:1055480000100240014B1860704700BF68004242DB
:10555800034BDA6A22F4704240EA0202DA627047C8
:1055680000100240014B1860704700BF70004242B3
:10557800034B5A6822F0030240EA02025A6070475D
:1055880000100240024B586800F00C00704700BF42
:1055980000100240034B5A6822F0F00240EA02026F
:1055A8005A60704700100240034B5A6822F4E062C8
:1055B80040EA02025A60704700100240034B5A68E2
:1055C80022F4605242EAC0025A607047001002405A
:1055D800014B1860704700BFD8004242034B5A681D
:1055E80022F4404240EA02025A607047001002402A
:1055F80030B52E4A536803F00C03042B03D0082B54
:1056080003D02B4B2DE02B4B2BE05368526803F44F
:1056180070139B0C0D2B02F4803201D0023300E092
:10562800062312B9244A53431BE0204AD46AD16A9C
:1056380001F00F01013114F4803F01D11D4A0DE042
:10564800D46AD26A04F0F00424091A4D02F4706294
:105658000134120AB5FBF4F402326243B2FBF1F1F1
:105668004B43124A03605168144B01F0F0010909D9
:10567800595C046834FA01F14160546804F4E06448
:10568800240A1C5D31FA04F48460546804F46054FC
:10569800E40A1C5DE140C160526802F4404203EB39
:1056A80092331B7CB1FBF3F1016130BD0010024065
:1056B80000127A0040787D0100093D009007002023
:1056C800044B11B15A69104302E05A6922EA0000FA
:1056D8005861704700100240044B11B19A69104399
:1056E80002E09A6922EA00009861704700100240BF
:1056F800044B11B1DA69104302E0DA6922EA0000CA
:10570800D861704700100240044B11B19A6A1043E7
:1057180002E09A6A22EA000098627047001002408C
:10572800044B11B1DA68104302E0DA6822EA00009B
:10573800D860704700100240014B1870704700BFD6
:10574800071002404309012B074A01D1136803E0FF
:10575800022B0CBF136A536A00F01F0033FA00F0E3
:1057680000F00100704700BF0010024007B5002399
:1057780001933120FFF7E6FF019B01330193019B61
:10578800B3F5A06F01D00028F3D03120FFF7DAFF7E
:10579800003818BF01200EBD024B5A6A42F08072D1
:1057A8005A627047001002400388CA8803F08F03CA
:1057B800038003889BB213434A8813439BB2038038
:1057C8008B8883850B880385054B984202D0054B4F
:1057D800984201D10B7A038601238382704700BF68
:1057E800002C014000340140038C70B523F0010304
:1057F8001B041B0C0384038C8488028B0D8822F005
:1058080073021204120C2A434E880D8923F00203F6
:105818001B0446EA05051B0CADB245EA0303114D0E
:10582800A4B2A84202D0104DA84215D14FF6F77580
:1058380003EA05054B89CE891D434FF6FB7305EA3C
:1058480003038D882B4347F6FF4504EA05058C8939
:1058580046EA0404A4B22C4384800283CA88828660
:10586800038470BD002C014000340140038C30B526
:1058780023F010031B041B0C0384038C8288048B05
:105888000D8824F4E6442404240C23F0200344EA7D
:1058980005241B040D891B0C43EA05134D8892B29D
:1058A80043EA0513134DA4B2A8429BB202D0124D8D
:1058B800A84219D14FF67F7503EA05054B8945EAD9
:1058C80003154FF6BF7305EA03038D8843EA0513F2
:1058D80047F2FF3502EA05058A899BB245EA820547
:1058E800CA8945EA820292B28280CA880483028702
:1058F800038430BD002C014000340140038C30B5D6
:1059080023F480731B041B0C0384038C8288848B10
:105918000D8824F073042404240C23F400731B045E
:105928002C430D891B0C43EA05234D8892B243EAA8
:105938000523134D9BB2A84202D0124DA84219D19B
:105948004FF2FF7503EA05054B8945EA03254FF633
:10595800FF3305EA03038D8843EA052344F6FF7500
:1059680002EA05058A899BB245EA0215CA8945EA11
:10597800021292B28280CA8884838287038430BDEF
:10598800002C014000340140038C30B523F48053CF
:105998001B041B0C0384038C8488828B0D8822F4DF
:1059A800E6421204120C23F4005342EA05221B04B7
:1059B8000D891B0C43EA05334D88A4B243EA05332D
:1059C8000A4D92B2A8429BB202D0094DA84205D115
:1059D800A4048D89A40C44EA8514A4B2848082832B
:1059E800CA88A0F84020038430BD00BF002C0140C5
:1059F8000034014021B103889BB243F0010304E065
:105A0800038823F001039B059B0D038070471AB19F
:105A180083899BB2194303E083899BB223EA01017E
:105A280081817047038B23F008031B041B0C41EA98
:105A3800030303837047038B23F400631B041B0CCD
:105A480043EA01239BB203837047838B23F0080347
:105A58001B041B0C41EA030383837047838B23F4E5
:105A680000631B041B0C43EA01239BB2838370472A
:105A7800818670470187704781877047A0F840107A
:105A88007047808E80B27047008F80B27047808FD9
:105A980080B27047B0F8400080B27047038A8289AC
:105AA80011EA030092B203D011420CBF002001207A
:105AB8007047C94389B201827047000030B5038A34
:105AC800CA8823F440531B041B0C134303820D465E
